:020000042000DA
:1000000000000120910100207F03002081030020D7
:1000100083030020850300208703002000000000E8
:100020000000000000000000000000008903002024
:100030008B030020000000008D030020FD33002012
:1000400091030020930300209503002097030020D4
:10005000990300209B0300209D0300209F030020A4
:10006000A1030020A3030020D12F0020ED2F0020AA
:10007000A9030020AB030020AD030020AF03002044
:10008000B1030020B3030020B50300207D2600202B
:10009000F104002075070020BD030020BF030020ED
:1000A000C1030020C3030020C5030020A5300020A9
:1000B00051310020CB030020CD030020CF030020CE
:1000C000D1030020D3030020D5030020D703002054
:1000D000D9030020DB030020DD030020DF03002024
:1000E000E1030020E3030020E5030020E7030020F4
:1000F000E9030020EB030020ED030020EF030020C4
:10010000F1030020F3030020F5030020F703002093
:10011000F9030020FB030020FD030020FF03002063
:10012000010400200304002005040020070400202F
:10013000090400200B0400200D0400200F040020FF
:1001400011040020130400201504002017040020CF
:10015000190400201B0400201D0400201F0400209F
:10016000210400202304002025040020270400206F
:10017000290400202B0400202D0400202F0400203F
:1001800031040020330400200000000000000000C3
:100190004FF0000BDFF8BE020068DFF8B612096806
:1001A00001F0030100F01C00142801D14BF0020BF8
:1001B000002901D04BF0010BBBF1000F05D0A7487F
:1001C000A749DFF8722200F09FF8A64880470BF09D
:1001D000020ABAF1000F0CD0DFF86E02DFF86E12DF
:1001E00002680B680FB44FF000024FF0FF0302608B
:1001F0000B609D484FF000024FF00103022808D128
:10020000DFF83A120A60DFF83E120A60DFF83212B5
:100210000B60012808D1DFF82A120A60DFF82612E5
:100220000A60DFF81A120B609048002809D1904844
:100230009049914A00F030F890489149914A00F075
:100240002BF891489149924A00F026F8914892493A
:10025000DFF8E22100F058F8BBF1000F10D08F4812
:100260008F49DFF8D62100F04FF80BF0020ABAF1FF
:10027000000F05D00FBC02600B6000BFAFF3008021
:10028000DFF820020FF2030E00474FF000004FF09E
:100290000001DFF814F2FEE72DE9F841884225D08D
:1002A000B2EB010200D5FEE740EA010313F00303BD
:1002B00002D000F01DF819E04FF000039046121133
:1002C000F7D09A421CBFF0C8F0C103F10103F8D186
:1002D00008F00F08B8F1000F08D004780C7000F196
:1002E000010001F10101B8F10108F6D1BDE8F88182
:1002F00008B54FF0000303780B7000F1010001F125
:100300000101013AF7D108BD884237D000F0030659
:10031000002E14D04FF00405A5EB06044FF008079B
:1003200007FB06F8914669FA08F9002C07D080F817
:10033000009069FA07F900F10100013CF5E74FF080
:1003400000060F46091A88460911914614461546BB
:10035000B14206D018BFA0E8340206F10106B1424E
:10036000F8D108F00F08B8F1000F07D002704FEA7B
:10037000322200F10100B8F10108F4E77047FEE70E
:10038000FEE7FEE7FEE7FEE7FEE7FEE7FEE7FEE745
:10039000FEE7FEE7FEE7FEE7FEE7FEE7FEE7FEE735
:1003A000FEE7FEE7FEE7FEE7FEE7FEE7FEE7FEE725
:1003B000FEE7FEE7FEE7FEE7FEE7FEE7FEE7FEE715
:1003C000FEE7FEE7FEE7FEE7FEE7FEE7FEE7FEE705
:1003D000FEE7FEE7FEE7FEE7FEE7FEE7FEE7FEE7F5
:1003E000FEE7FEE7FEE7FEE7FEE7FEE7FEE7FEE7E5
:1003F000FEE7FEE7FEE7FEE7FEE7FEE7FEE7FEE7D5
:10040000FEE7FEE7FEE7FEE7FEE7FEE7FEE7FEE7C4
:10041000FEE7FEE7FEE7FEE7FEE7FEE7FEE7FEE7B4
:10042000FEE7FEE7FEE7FEE7FEE7FEE7FEE7FEE7A4
:10043000FEE7FEE7704700000000A2A2A2A2008033
:100440000340088003401080034030800340348024
:1004500003403880034018080240000000F00020EC
:1004600000000120AD32002000000000000000006C
:10047000000000200000002090010020B0040020B7
:10048000B004002070350020703500207035002049
:10049000C0350020C0350020803A0020803A00207E
:1004A00000F0002011340020A133002000000000E3
:1004B00010B5054C237833B9044B13B10448AFF39E
:1004C00000800123237010BDC03500200000000013
:1004D0004C35002008B5034B1BB103490348AFF36B
:1004E000008008BD00000000C43500204C3500200D
:1004F000684620F007018D4671B59C4B83B09A7A0F
:10050000D2B28DF802205A8892B2ADF804209B88AE
:100510009BB2ADF806309DF802309D0661D4934B36
:1005200093F86020540703D593F86020500719D43E
:10053000BDF80430DB0731D4BDF8043023F00103EB
:100540001B041B0C002B40F0A180BDF8063023F0EB
:1005500001031B041B0C002B49D103B0BDE8714003
:100560008546704793F86030DB098DF803309DF8BD
:1005700002309DF8033033B99DF802309DF8023007
:10058000190600F1EF809DF80230DA0600F1E780ED
:100590009DF80230BDF80430DB07CDD50022734B47
:1005A0009A73B3F8020110F0040008D00D20B3F8DC
:1005B000022122F004021204120CA3F802216B4B58
:1005C000B3F80221D60600F1AD80B3F802311C0663
:1005D00000F1B880002808BF0A20654B9B68984747
:1005E000AAE701F07FFA624B5B69984797E7BDF88D
:1005F0000650ADB2002DB0D06D084FF001045C4E36
:10060000ABD0EB0739D5230103F1804303F58623F3
:10061000B3F8061111F0400108D00D21B3F80621FE
:1006200022F040021204120CA3F80621B3F80621AE
:1006300010070AD5B3F8062141F00B0122F0080299
:100640001204120CC9B2A3F80621B3F8062152070E
:100650000AD5B3F8062141F00C0122F0040212047D
:10066000120CC9B2A3F80621B3F80621204612F0F5
:10067000010F18BF0A217368984701346D08E4B26E
:10068000BFD103B0BDE8714085467047BDF8045046
:10069000ADB2002D3FF459AF0124354E6D083FF443
:1006A00054AFE8072DD5230103F1804303F58623DA
:1006B000B3F8021111F0040108D00C21B3F80221A3
:1006C00022F004021204120CA3F80221B3F8022152
:1006D00012F0200FB3F802210BD022F020021204F6
:1006E000120CA3F80221B3F80221110618D50F212C
:1006F0000DE0120608D4002908BF0A2120463368FD
:1007000098470134E4B2C9E741F00B01C9B2B3F82C
:10071000022122F080021204120CA3F80221EDE75C
:100720000D21EBE7B3F8022140F00C0022F010029B
:100730001204120CA3F80221B3F80231C0B21D0654
:100740007FF54BAF094A40F00B00B2F80231C0B25E
:1007500023F080031B041B0CA2F802313DE701F0DB
:10076000B1FB15E701F0BEF90DE700BF0030044012
:1007700074350020684620F007018D4601B401BCA5
:1007800085467047017800294DD08369002B4AD0F7
:100790009A07F0B54BD40A0102F1804202F5862295
:1007A000B2F802319B07FBD40123364C8B40E5881D
:1007B0002B439BB2E380438805899D4235D8476A25
:1007C0009F4232D88379012B34D05FEA970ED0F85C
:1007D00018C00BD0ACF1040303EB8E0E01F1080539
:1007E00053F8046F734544F82560F9D127F00303EB
:1007F0009F420CD9013B7C1E224E634401F1080547
:10080000644413F8011F9C4206F82510F9D1B2F890
:100810000231016A9BB243F00103394487620162ED
:10082000A2F80231F0BD00BE704700BEF0BD00BEB0
:100830000178B0E7C379816904EB0314C4F80812A6
:10084000017B1B010229B2F8021112D021F4805160
:100850000904090CA2F80211C4F80C7203F18043D8
:1008600003F58623D3F8042242F00102C3F80422E0
:10087000F0BDC06989B241F48051A2F80211C4F8F8
:100880000C02EBE700300440F0B44478012C4FD068
:1008900002784588FAB1072D40F2BA806A4B2E07DC
:1008A0009A734FEAD501C5F3C00300F1CB80490824
:1008B0000133CD07DBB2FAD55BB2634943EA0413D7
:1008C000DBB281F862308388012C4FEAD3038A734C
:1008D000A1F8643039D004B300BE012302789340FC
:1008E0009CB2057B22B1038913F0070673D0120175
:1008F00002F1804303F58623B3F8021189B241F077
:100900004001A3F80211817901292AD04E4AD388E7
:100910009BB22343D380F0BC704701244A499440E2
:10092000B1F84233A4B29BB22343A1F84233D8E7D3
:10093000027843884AB10F2B4FEA5305AED883881B
:100940004149DB088A73A1F8643001243E49944090
:10095000B1F84233A4B29BB223EA0403A1F84233B4
:10096000BFE7022D5ED00025B3F8021121F48061AB
:100970000904090CA3F80211B3F8021121F4805103
:100980000904090CA3F80211C379D2B21B0103F1C7
:10099000804101F58621D1F8046280693243C1F8B3
:1009A0000422D1F8042242F00202C1F80422D1F854
:1009B00004221543C1F80452D1F8042242F4C06263
:1009C000C1F80422C1F80802D1F8043243F0080348
:1009D000C1F804329AE7017D12010139CFB21E2F0E
:1009E00086D802F1804707F5862789B2A7F800610B
:1009F000A7F80011B7F80011C90201F47841A7F86F
:100A00000011B7F8001189B20B43A7F800316FE766
:100A100083880D49DB088A73A1F86430002C7FF4C9
:100A20005BAF7AE7B3F80211042589B241F4806123
:100A3000A3F80211B3F8021189B241F48051A3F86E
:100A40000211A1E7002338E700300440F0B44478F5
:100A5000012C59D002784588FAB1072D40F2A580C3
:100A60006E4B2E079A734FEAD501C5F3C00300F110
:100A7000D38049080133CD07DBB2FAD55BB26749B1
:100A800043EA0413DBB281F863308388012C4FEA18
:100A9000D3038A73A1F8663043D054B300BE012358
:100AA000027893409CB2057B32B103891BB113F0ED
:100AB000070700F08480120102F1804303F58623CA
:100AC000B3F8061189B241F08001A3F80611B3F81A
:100AD000061121F001010904090CA3F8061181791E
:100AE00001292AD04D4A13899BB223431381F0BCBC
:100AF0007047012449499440B1F84033A4B29BB2F5
:100B00002343A1F84033CEE7027843884AB10F2B44
:100B10004FEA5305A4D883884049DB088A73A1F8BB
:100B2000663001243D499440B1F84033A4B29BB2F1
:100B300023EA0403A1F84033B5E7022D5CD0002579
:100B4000B3F8061121F400610904090CA3F8061199
:100B5000B3F8061121F400510904090CA3F8061199
:100B6000C379D2B21B0103F1804101F58621D1F88E
:100B7000046280693243C1F80422D1F80422C1F82A
:100B80000422D1F804221543C1F80452D1F80422FA
:100B900042F4C062C1F80422C1F80802D1F804325C
:100BA00043F00803C1F804329CE783881B49DB0843
:100BB0008A73A1F86630002C7FF470AF99E7017D4D
:100BC00012011F293FF678AF013902F1804606F580
:100BD000862689B2A6F80471A6F80411B6F80411A5
:100BE000C90201F47841A6F80411B6F8041189B2DB
:100BF0000B43A6F804315FE7B3F80611042589B268
:100C000041F40061A3F80611B3F8061189B241F46A
:100C10000051A3F80611A3E7002330E70030044099
:100C2000014B1870704700BF24360020704700BF8A
:100C300001220249024B48701A707047E8350020C3
:100C4000253600200122014B1A70704726360020FD
:100C5000704700BF704700BF417802460129037802
:100C600015D06FF001000F4B5B785BB95188D379D9
:100C7000B1F5007F18BF6FF00400402B18BF6FF074
:100C800005007047022B08D16FF00D007047B3F1DB
:100C9000120018BF4FF0FF30E5E7012B08BF6FF0DF
:100CA0000E007047E835002070B51D4D00EB0010B8
:100CB00005EB80050A290E4695F840400ED0194AEA
:100CC00004EB440402EB84039B68E9725B69A400B3
:100CD000BBB1105D0022BDE870401847284601F006
:100CE0008FF8D5E907329A420CD10E210D4804EB5A
:100CF000440400EB84039B68E9725B69A40053B968
:100D000000BE70BD29899B1A8B4228BF0B4600226A
:100D1000C5E9093270BD3146005DBDE87040184735
:100D2000A0380020E835002070B41B4B00EB001009
:100D300003EB80000A2990F840301DD0174D03EBDB
:100D4000430305EB8304A468C17224699B0084B14A
:100D5000026AE85C234670BC18470E260F4D03EB71
:100D6000430305EB8304A468C67224699B00002C2E
:100D7000EFD100BE70BC7047D0E90742A242ECD070
:100D80000389A41A9C4228BF1C460023C0E90943DA
:100D900070BC00F0F1BF00BF4C370020E8350020E8
:100DA000704700BFF8B54FF0400C04214FF40042EB
:100DB00000260127044600F003030F4D03EB430018
:100DC00005EB80050D4804F07F0480F84030EB8887
:100DD000A0F802C007750381C172C263067000F0FB
:100DE000C5FD6B78064A9B01DBB282F80A3182F8B6
:100DF00080403046F8BD00BFE83500204C37002069
:100E000000300440844608462DE9F04100254FF0AB
:100E10000108234E01EB011706EB87040CF0030ECB
:100E2000204986B0A3800EEB4E0301EB8303BDF88F
:100E30003010BF0061809DF84010F055E171BDF8A1
:100E40003410083621813E4459789DF83C7084F86E
:100E500040E0A77165700291129975805F799DF8E5
:100E60004460216113992673C4E90655C4E9085505
:100E7000A562A5630496E16384F8148084F8348045
:100E8000039101971E79114600966246DB7800F0C7
:100E90003BFE204600F0C6FD284606B0BDE8F081C6
:100EA0004C370020E8350020844608462DE9F04103
:100EB00000254FF00108234E01EB011706EB8704D4
:100EC0000CF0030E204986B0A3800EEB4E0301EB1D
:100ED0008303BDF83010BF0061809DF84010F055CD
:100EE000E171BDF83410083621813E4459789DF8EF
:100EF0003C7084F840E0A77165700291129975808A
:100F00005F799DF84460216113992673C4E9065501
:100F1000C4E90855A562A5630496E16384F81480CA
:100F200084F83480039101971E7911460096624639
:100F3000DB7800F06BFE204600F0A4FD284606B0EA
:100F4000BDE8F081A0380020E8350020F8B504465F
:100F5000DDE9066700B900BE01B900BE02B900BEF6
:100F600003B900BEB6B1BB424FF0000528BF3B46F7
:100F7000094801EB011100EB810004F0030480F843
:100F80004040C761436286610562856200F0F4FEFD
:100F90002846F8BD00BEE6E74C370020F0B4044612
:100FA000DDE9045600B900BE01B900BE02B900BEB9
:100FB00003B900BE05B3B3424FF0000028BF33466B
:100FC0000E4A01EB0117090102EB870204F003044A
:100FD00001F1804182F8404001F58621B1F80641D7
:100FE000D661A4B244F0200495615362106290620D
:100FF000A1F80641F0BC704700BEDCE7A038002035
:1010000010B400F00302074B02EB420113F8214039
:101010005100844200D000BE0A4403EB820398785A
:1010200010BC7047E8350020F0B40546002826D0F3
:10103000002927D0860700D500BE8C0700D500BE4A
:10104000500600D000BE00200526104C104FC4E909
:10105000073084F82C202073A0622B680D4A38706A
:10106000A16113626B6825631362B2F80231E67204
:101070009BB243F00A03A2F80231F0BC704700BEF5
:101080000029DAD100BEAF07D6D4D9E74C3700200B
:10109000703500200030044000202DE9F041AE4AB8
:1010A00086B08DF80700D388AC4923F001031B04F8
:1010B0001B0CD3800B78AA4DDBB28DF8073008707B
:1010C000D388E97A9BB243F001030C1FD38090735D
:1010D000092C00F21083DFE814F032000A00B70197
:1010E0000A02A901D9010E032201220122019DF861
:1010F000073023B39DF807300A2B40F0A181EB693C
:10110000002B00F06183296A2A895B1A934228BF69
:10111000134695F82C206B62802A00F08D83002AFC
:1011200040F0E9828E4800F0F1FD07238A4AEB7215
:10113000B2F802319BB243F00203A2F8023100225E
:10114000884C029223780392112B00F2D682DFE8BA
:1011500013F03A0008021C022E023A024A025E0212
:101160006F02A102C4021200E30161017A003A0099
:10117000D402F70161017C4B1A7822B31B780E2B45
:1011800040F051812A227949794B087802FB00F21C
:1011900002F114015D5C1944092D4D7800F05F8364
:1011A000022D00F069830A7AFA2A00F26F832A225C
:1011B000F72102FB00336FF0080283F828100F219B
:1011C0006C4B21701A706C4F3B78012B56D06B4DD5
:1011D0002B78062B34D8DFE813F08600E1000700F7
:1011E000F9000001330010016549664A0B68126876
:1011F0009B1A142B00F0DF820B689A1A272A1FD93A
:10120000DFF8908198F80130012B06D1524B5B78C2
:10121000DB0644BF002388F801305B4B1B681A686B
:101220003AB1524B1B7803EB430308EB8303587826
:1012300090470020FFF7B6FD032388F802302B709B
:1012400006B0BDE8F0814A4A92F82230092B00F03E
:10125000B8824E4845682968C1F30746B34206D1B3
:1012600092F82360C1F307239E4200F092826FF050
:101270000B030F213F4A21701370A4E70023424A59
:101280003A4912683B7052680B7002B190473F4D6B
:10129000DFF800812B78012B00F0388100264FF415
:1012A0008003344AC8F804303146C8F80060C8F8F2
:1012B00008601670DFF8A0804FF4A8722C4802F086
:1012C000CBF82E70267098F80B302C4D43F030037D
:1012D000304688F80B30FFF765FD88F8806088F8A5
:1012E0000A613E702E701C4A294992F8603043F022
:1012F000010382F860300B78002BA1D0002401207C
:101300001A4B0C701B781E49224A0C6803EB4303EE
:101310001C4902EB8303987028700C6090E795F8E5
:101320004030DFF8708003EB430308EB83029068E2
:101330009B00194A002800F0EF811478012C00F07E
:10134000EB81C468002C00F0198218F803002A6AA7
:10135000A0470423EB72F2E600300440243600205C
:101360004C370020DC35002070350020343600205A
:10137000F43500201E36002026360020DD35002002
:10138000283600202C36002020360020E0350020B2
:1013900025360020E8350020DE350020AE49AF4A72
:1013A0000B6810681B1A632B7FF64AAF0224AC4B04
:1013B000D87A40F08000D8720868AA4910605A783C
:1013C0008C7042F008025A702C7039E72378002B99
:1013D00040F095810123237032E7A34BA14A5B685B
:1013E00010785B6898470522A04B2A701B681B6920
:1013F000002B3FF425AF984722E79C4B1B685B69A5
:101400001BB19B4A92F90000984700232B7006B04D
:10141000BDE8F081974B1A78002A3FF4D4AE1B78D0
:101420000E2B00F0AD810F232370CCE69DF8073022
:10143000002B3FF484AE9DF807300A2B00F0868124
:101440009DF80730EB727AE69DF80730002B3FF4E9
:1014500076AE9DF807300A2BF2D1874800F096FC53
:10146000D5E907329A4200F0DC8129899B1A8B4228
:1014700028BF0B4606217A4A6B62B2F80231E97244
:101480009BB243F02003A2F8023158E69DF80730E2
:10149000002B3FF454AE724A95F84000B2F8023186
:1014A000B2F8023123F041031B041B0CA2F80231F5
:1014B0009DF807300A2BC3D10E21DFF8A88100EB7D
:1014C000400008EB80039B688000E972002B00F06D
:1014D00086816A4A1278012A00F08181DB68002B3C
:1014E00000F04C8118F800002A6A984731E79DF80F
:1014F0000730002B3FF423AE9DF807300A2B00F095
:1015000017819DF80730EB7200BE18E66B6898F8FB
:1015100000009B689847C1E62A2259494FF490156C
:10152000584B09780C2002FB013112230395564DCC
:1015300014312070802202A80295FFF775FD42E663
:101540000023092201211125CDE9023302A88DF8DB
:1015500009208DF80A10802204A92570FFF764FD88
:1015600031E62A21464A474B12784FF4002501FB09
:101570000231022008230395444D207080220DEB98
:1015800003000295FFF750FD1DE63A4B1A78002A3A
:101590003FF419AE1B780E2B7FF445AF0322394B75
:1015A000DFF8C080DB792270A8F806300BE6042152
:1015B000294A374B10682A4A1860537843F00803C9
:1015C00053702170FFE52449314A0B6812689B1A59
:1015D000142B00F0D8800B689A1A272A7FF6F3ADF7
:1015E00005232370EFE50020FFF7DCFB0023052730
:1015F0001026062502A91A460846CDE902332570B1
:101600008DF809708DF80A60FFF70EFDDBE5194BC8
:101610001A78002A3FF4D7AD1B780E2B00F0E38038
:1016200000230F22DFF83C80227088F80030CAE5E2
:101630004FF4901508202A21114A124B1278039575
:10164000124D01FB02312070122380226844029562
:10165000FFF7EAFCB7E500BF283600202C36002053
:1016600000300440E8350020E0350020203600201E
:101670001E360020703500204C370020DE3500205B
:1016800034360020F4350020800600028006000178
:1016900030360020834B1A78002A3FF494AD1B7833
:1016A0000E2B7FF4C0AE2A2141F60A207E4A7F4BE2
:1016B000127801FB02310D89854200F0C8802A258D
:1016C00005FB02352846FFF7C7FA85F828000028F1
:1016D00040F0A2800923237075E52A224FF41025DB
:1016E0007149724B0978039502FB01310A200923E5
:1016F0006F4D14311DE700BE21E500BE63E50E2BE2
:101700000FD00F2B7FF49CAD002001210623694AE6
:10171000207091702B7093E5002362480170137064
:101720000DE50423002263492B708B70227087E53E
:10173000D5E907329A4247D029899B1A8B4228BFA4
:101740000B465D486B6200F0E1FAF8E40E2195F873
:101750004030DFF8608103EB430308EB83029068BD
:101760009B00564AE97218B11478012C7FF4E9AD58
:101770000E2000234B4908701370EAE500BEE8E52F
:101780000D2323701FE54E4A537803F0F70353707F
:1017900019E592F82430C9B28B427FF468AD037822
:1017A000002B7CD101220E23DFF808810270237008
:1017B000C8F8085007E5424A537803F0F70353701E
:1017C0003EE56FF00C0354E509233D4AEB72B2F895
:1017D00002319BB243F06003A2F80231AFE40E2263
:1017E000304B1A70B5E510222A212B78DFF8C4801F
:1017F000334D13442C4888F8002005F83320057831
:101800002A4B01FB05352846FFF726FA85F8280004
:1018100010B907232370D6E40F222A4B22701870C8
:10182000D1E40823264AEB72B2F802319BB243F0AE
:101830004203A2F8023182E40623214AEB72B2F895
:1018400002319BB243F02003A2F8023177E44989C8
:10185000B1F5007F7FF433AF10232370B3E4022D82
:101860007FF4A1AC097AFA2910D800200B21134487
:1018700083F828002170A6E4097AFA2906D8F8210D
:10188000134483F828106FF0070298E42A25F62104
:1018900005FB00336FF0090283F828108FE46FF026
:1018A0000A03E6E47035002034360020F4350020C9
:1018B00080060002E83500204C370020DE3500208D
:1018C000003004401E36002010B41A439DF8043046
:1018D0009DF808401143062B0170BDF810209DF8BB
:1018E0000C104370C47008D00023837003714371DF
:1018F000130A10BC8271C3717047032CF4D1042306
:1019000009244371130A0471817010BC8271C37180
:10191000704700BF014BD87A704700BF4C3700209A
:101920000B4A0C4B11680C4801311160126803FB23
:1019300002F3B0EBF30F00D2704710B5074C15203F
:10194000217801F09DFC236883F00103236010BD22
:1019500028360020D578E92637894100383600201E
:10196000014B1868704700BF2836002000222C4B1E
:10197000A3F8022190F83420B2B1B3F8022192B258
:1019800042F40062A3F80221C36BB3F5004F17D9EC
:1019900000BEC36BB3F5004F12D9214AD3889BB266
:1019A00043F00103D3807047B3F8022122F40062B0
:1019B0001204120CA3F80221C36BB3F5004FE7D851
:1019C00013BB00BEC36B5A42134023D09AB2002A05
:1019D00014BF0F221F2213F0FF1F18BF083A13F085
:1019E0000F3F18BF043A13F0333F14D013F0553FA4
:1019F000A2F1020200D0013A0132D2B2022A9CBF07
:101A0000074B83F80B21C8E75A1E1A42D9D15A4214
:101A10001340DBD1202213F0553FBED0013AEBE753
:101A20000030044003781B0103F1804303F5862353
:101A3000B3F8022122F004021204120CA3F80221CE
:101A4000B3F8022122F080021204120CA3F8022142
:101A5000B3F8022122F020021204120CA3F8022192
:101A6000B3F8022122F400721204120CA3F802212E
:101A7000B3F8022122F400621204120CA3F802212E
:101A8000FEF702BF03781B0103F1804303F58623B1
:101A9000B3F8062122F004021204120CA3F8062166
:101AA000B3F8062122F008021204120CA3F8062152
:101AB000B3F8062122F040021204120CA3F806210A
:101AC000B3F8062122F480621204120CA3F8062156
:101AD000B3F8022192B242F04002A3F80221FEF7CD
:101AE000B5BF00BF064B93F8603003F01803083B06
:101AF000DBB2102B9ABF034AD05C0020704700BFB6
:101B00000030044068340020F0B49DF820603E4B63
:101B100002F07F0200F11007032E9DF81850079C79
:101B200003F837205DD0002C57D100BE63421C4023
:101B300022D0A3B2002B14BF0F231F2314F0FF1FCA
:101B400018BF083B14F00F3F18BF043B14F0333F9D
:101B500013D014F0553FA3F1020300D0013B013331
:101B6000DBB2022B4FEA00109EBF00F1804202F56B
:101B7000862282F80B3104E0202314F0553FEDD18A
:101B8000000100F1804000F5862090F80A3103F052
:101B9000F00380F80A3190F80A31194380F80A11ED
:101BA00090F80A3103F0CF0380F80A3190F80A2147
:101BB00042EA0612D2B280F80A2190F80A3103F004
:101BC0003F0380F80A3190F80A3143EA8513DBB20B
:101BD00080F80A31F0BC01207047631E2342A5D073
:101BE000A3E7002D9FD0631EFE2B00D900BEE4B2F8
:101BF000022C4FEA00109EBF00F1804303F58623BC
:101C000083F80B41BDE700BF0030044070B43E4B89
:101C10009DF81C60C400234402F07F02032E9DF84F
:101C20001450069C1A715DD0002C57D100BE63423F
:101C30001C4022D0A3B2002B14BF0F231F2314F08B
:101C4000FF1F18BF083B14F00F3F18BF043B14F0F0
:101C5000333F13D014F0553FA3F1020300D0013BF2
:101C60000133DBB2022B4FEA00109EBF00F180422D
:101C700002F5862282F80D3104E0202314F0553F4E
:101C8000EDD1000100F1804000F5862090F80C3184
:101C900003F0F00380F80C3190F80C31194380F810
:101CA0000C1190F80C3103F0CF0380F80C3190F850
:101CB0000C2142EA0612D2B280F80C2190F80C31C5
:101CC00003F03F0380F80C3190F80C3143EA8513A0
:101CD000DBB280F80C3170BC00207047631E2342D9
:101CE000A5D0A3E7002D9FD0631EFE2B00D900BE18
:101CF000E4B2022C4FEA00109EBF00F1804303F5CE
:101D0000862383F80D41BDE78030044003781BB97A
:101D100082690AB1037B4BB100BE037803B17047FF
:101D20008269002AFBD0037B002BF8D170B4456A8E
:101D3000C5F38F044CB102EB84040E4E043C131F18
:101D400053F8041FA3423162FAD125F003039D42E8
:101D50000AD9013B691E074C13440A4413F8011FBA
:101D60009A4284F82010F9D1036A85621D44056205
:101D700070BC70470030044003781BB183690BB11D
:101D8000037B03B900BEFEF7FDBC00BF037870B44F
:101D90001BB983690BB1037B03B100BE174A436AC9
:101DA000148B04F07F049C4200D900BEA508816911
:101DB00008D00B1F114E03EB8505326A43F8042F40
:101DC000AB42FAD124F003039C4208D90B4D0B44DB
:101DD000214495F8202003F8012B9942F9D10749B5
:101DE000026AB1F80231224423F001031B041B0CE8
:101DF000A1F802318462026270BC70470030044076
:101E00000023F0B4077882B0ADF806301FB18369C3
:101E10000BB1037B0BB900BE07783B0103F1804394
:101E200003F58623B3F80831426A9BB2ADF8063059
:101E3000BDF806309BB2934201D900BE0778BDF8C9
:101E400006C08569CCF38D041FFA8CFC64B105EBE8
:101E500084041B4E043C2B1F07F1080256F8221085
:101E600043F8041FA342F9D12CF003039C450BD97E
:101E7000134E2B4405EB0C0407F1080216F8221050
:101E800003F8011B9C42F9D10378016A1B0103F19D
:101E9000804303F58623B3F8062122F001021204E1
:101EA000120CA3F80621BDF80620BDF8063092B248
:101EB0000A449BB20262836202B0F0BC704700BF6A
:101EC00000300440104B93F86020910658BF93F8FF
:101ED00060300D4B58BF01205A7848BF022092074E
:101EE00003D55A7802F0FD025A70074B074A93F85F
:101EF0006030126903F01803083BDBB2102B96BF69
:101F000003490021C95C10470030044074350020AB
:101F10006834002000222DE9F04FA14C93B02378C3
:101F2000089209921B2B00F21683DFE813F00C02D3
:101F3000E401B5019F01910186016C015D01790207
:101F400068023502160223011401F100E400DB00EF
:101F5000D100B500A800A0009700750068005300EC
:101F600041002C001C008F4B1A784AB901218E4A7F
:101F700019701368DB681BB18C4A92F9000098470E
:101F800013B0BDE8F08F8A4C2378052B00F2E38272
:101F900001A252F823F000BF3925002019250020A6
:101FA000DD240020552400203F240020811F002034
:101FB000804B1A78002AE3D000217F4A19705368B9
:101FC000B3F5003F00F0C9821B21FD22774B217041
:101FD0001A70D5E7774B1A78002AD1D00D2000214E
:101FE00019250190754A7648764E0078009619704A
:101FF0005388012112782570FEF7D0FFC0E7724B9D
:102000001B78002BBCD008230021019318256B4AB4
:102010006B48684B684EE8E74FF01F0C00228021A8
:1020200042F20A5008261725684B694FCDE9003C5B
:10203000DA601F601973D8816649674F60489A61FA
:10204000C3E904225F609E60C3F81B2000784B88C0
:102050000A7801212570FEF779FF91E7554B1A7830
:10206000002A8DD000210B221970227088E7514B75
:102070001A78002A84D00D2000211525B1E7524B93
:102080001A78002A3FF47CAF122000210190142519
:102090004A4A4B48514EA8E74FF01F0C1327504EA9
:1020A0000AAD0FCE0FC596E80F0007C5444825F8C6
:1020B000023B0AA9CDF804C0464A1E0C00780091E4
:1020C0005388012112782E702770FEF73FFF57E7E3
:1020D000384B1A78002A3FF453AF002116221970AA
:1020E00022704DE7334B1A78002A3FF449AF0D2098
:1020F0000021112575E7344B1A78002A3FF440AFD0
:1021000024200021019010252C4A2D48354E6CE7E3
:102110004FF01F0C00222426802041F206210F27B9
:102120002A4B2B4DCDE9003C1D602B4DDA60C3E9F5
:1021300005221A615D60C3F81B20264D204A1873E2
:10214000D9819E60DE74012110786B882A7827700F
:10215000FEF7FCFE14E7174B1A78002A3FF410AF85
:102160000021184A1970137B002B40F0EF810E23D9
:10217000237005E7144D2B78002B3FF401AF0D239E
:10218000002610490E4801930C4A007800912370F4
:10219000012153882E701278FEF700FFF0E600BF91
:1021A0009D3600203C360020A03600209E360020C0
:1021B0009C360020EA36002094360020DC360020D1
:1021C000C436002060360020EB3600204036002068
:1021D00055534243E436002050403020EC36002076
:1021E0008434002070360020AB4B1A78002A3FF46C
:1021F000C7AE0E2A00F0A7810D2A00F0D08100BEE4
:1022000000221A70BCE64FF6A162002301250726C2
:10221000A249A348C97A00788DF8241008928DF855
:102220002530ADF82650FEF7BDFD2B4680229D4996
:1022300008A82670FEF7F8FEA2E6FFF791FB9A4B7E
:102240001B68C01A3C287FF69BAE0623237097E6D6
:10225000914B1A78002A3FF493AE00221A70FFF7D0
:102260007FFB0522904B2270186089E68F4B1B681C
:102270001B6803B198470023092204258749CDE94B
:1022800008334E798DF8212008A880228DF822602D
:102290002570FEF7C9FE73E67F4A1378002B3FF4E2
:1022A0006FAE002003217D4B10705A7D2170910785
:1022B00040F15B811A7F920740F1578193F9141026
:1022C0001A7D8142C0F2578193F91B10D87E0029F4
:1022D00080F24B819D7F597F754C00F07F0041EA71
:1022E0000521DD7D9B7D2070724843EA05236180D6
:1022F0004380027044E66A4D2878FEF781FE042888
:102300007FF43EAEFFF706FB04287FF439AE287851
:10231000FEF748FD20260023022506211A46CDE9B6
:10232000001502930DEB060080210396CDE90833DA
:10233000FFF7CAFA3346802258490DEB0600257094
:10234000FEF772FE1CE65C4B1A78002A3FF418AECA
:10235000002101221970227012E61F220025062397
:102360005649574ECDE900124D480E60514A554E20
:10237000C1E90255C1E90555CB810D6153884E6015
:102380000D73C1F81B50CD74007801211278FEF74F
:10239000DDFD0C232370F3E500264FF4004B4FF0D6
:1023A000020A4FF0040901254FF40078414B3C4FDD
:1023B00059881A78CDE9066BCDE9049A0191039604
:1023C0000295CDF8008029464FF480733878FEF7E7
:1023D00019FD374BCDF81CB05A88CDE905A6CDE9DB
:1023E00003690295CDF80080387801921A78294661
:1023F0004FF44073FEF758FD0B232370C0E5264BC6
:102400001A78002A3FF4BCAD0E2A00F09C800D2AF9
:102410007FF4F5AE1B20FE212B4A20701170EFE6F1
:1024200009252A4B0AAA93E80300002382E8030047
:1024300010461C4980222570FEF7F6FDA0E5244BCE
:102440001A78002A3FF49CAD002222491A702270AB
:102450000A7495E51F4B9A68002A00F0A6801A6856
:1024600092F90C20002AC0F2A0801B490A78002AA9
:102470003FF486AD0D2200260425DB680848019252
:102480000B4A009353880E70127801210078257052
:10249000FEF784FD74E500BFE9360020A436002075
:1024A000C4360020E036002000370020A03600208F
:1024B000DC360020E4360020E836002040360020DC
:1024C00055534243504030209E3600207C3400203B
:1024D000EA360020C8360020EB3600204D4B1A7833
:1024E000002A3FF44DAD00214B4A19709368002B30
:1024F00074D01168506891F90C1000297DDBCDE98A
:102500000003464A46495388087812780121FEF7AD
:102510001DFD0323237033E51F2302253E493F4A57
:1025200008683F49CDE900035388087812780121F3
:102530002570FEF70BFD23E5374B1B7C012B7FF449
:102540001FAD23701CE50A22227059E6012B42D0F0
:10255000022B7FF415AD00BE12E5324B1B685B68A1
:1025600003B198471A2323700AE51B21FF222E4B43
:1025700021701A7004E5DC7D987DD97E40EA042044
:102580009C7F5B7F294D43EA0423244C02F07F02A9
:1025900001F07F012A70688021706380F0E40021DF
:1025A0000820234A207011602AE6224A1178002967
:1025B0003FF4E6AC0D2100260425DB6818480191A4
:1025C0001A4900934B88167000780A78012125700B
:1025D000FEF7E4FCD4E412232370D1E40D23042598
:1025E000D0680F49CDE90003104A087853880121CB
:1025F00012782570FEF7D2FCC2E4CDE900030B4A45
:1026000007495388087812780121FEF7C7FC032395
:102610002370B5E4EB360020C8360020E4360020F5
:10262000C4360020A03600209E360020DC36002074
:10263000E0360020EA3600200B4B10B50B4C198811
:1026400023683BB10A4A89B2106898470023094AB7
:1026500023601370084B1A46196841F00101196094
:102660001368DB07FCD410BD243700200C37002092
:102670001C3700202937002000600140954BF0B541
:102680005C689A68E4B21440A10785B003D4E107FE
:1026900010D405B0F0BD904D1A692B78D0B2052B3F
:1026A00000F2AF81DFE813F03001A400A4000F01B5
:1026B000E4005900884D2B78022B00F0A380052BF5
:1026C00054D0012B12D0834A844C936823F0010329
:1026D000936023683BB1824A002110689847002329
:1026E000804A2360137000232B70D2E77E4E33881C
:1026F0009BB2002B00F01E81764934880B68DFF80E
:1027000004C223F00403DCF800700B604B68A4B231
:1027100003F001030193019A92B1002C00F06B8148
:102720000022781E01E094420AD010F8013F0132E5
:102730000B614B6803F001030193019B002BF2D165
:1027400033889BB2934240F23481338817449A1AFB
:1027500092B2CCF8007032809BE7160440F10381FE
:10276000624B1B68002B4BD1E20792D5604C23686B
:1027700083B9604B1B68002B00F023815E489847AB
:102780002060236833B90321524A936823F0010380
:10279000936029702368002B00F0D7804D4D276887
:1027A0002B68554823F0040306682B606B6803F020
:1027B00001030393039BB3B1002F00F01E81013F7F
:1027C0003744721E01E0BA420CD0134612F8011FC2
:1027D0000233296169689B1B01F001010391039990
:1027E0000029F0D11E4422680660D31A236050E706
:1027F00015047FF54CAF3D4B1B68002B3FF447AFF2
:10280000984744E73A4C2368002B00F09380314E00
:1028100027683368384823F00403D0F800C03360D9
:10282000736803F0010302930299B9B1002F00F01D
:10283000E680013F67440CF1FF3301E09F420DD079
:10284000194613F8012F023132617268A1EB0C01B5
:1028500002F001020292029A002AEFD123688B4211
:1028600073D922680CEB0103511A0360216010E751
:10287000170472D4214A1A4913880E689BB2334454
:1028800013F8013CF12B00F0A5801D49138809883D
:102890009BB28B4206D217881388BFB201339BB21A
:1028A000F055138013889BB299420ED10B4F1388B9
:1028B0003A6899B2002A63D0304690470023094A0B
:1028C0003B6013705CE0130460D4E3073FF5FBAE9C
:1028D00005B0F0BD00600140283700200C37002013
:1028E0001C370020293700200A3700200437002039
:1028F0001037002020370020183700202437002010
:1029000026370020143700201204DED5F12824D108
:10291000002604223F4B2A701E8019881A8889B22B
:10292000013292B21A803C4A1B8812689BB2505402
:10293000D654CAE700BE394B1B78002B3FF4A9AE32
:1029400005B0BDE8F040FFF777BE0321344A936835
:1029500023F00103936029709BE6324B1B68002B28
:102960007FF44EAFB1E72C4B2F4E1A68336850708E
:1029700033B11046022198470023284A3360137070
:1029800000232B70E3073FF59EAEA1E7274B1B7892
:102990009842E2D1002304211E4A1F4E1380297061
:1029A000118813883668013389B29BB21380705442
:1029B0008BE700221E4B32801B68CBB102232B70A9
:1029C00067E600BE154B1B78002B3FF4E3AEFFF724
:1029D00033FEDFE6134B11881F6813888AB2B054A8
:1029E0009BB2002FCCD0334413F8010CB847C7E793
:1029F00003232B704DE62246A2E63B46F3E639461A
:102A00002CE7094E3368002BBAD0034A0021106826
:102A1000B1E700BF243700201C37002029370020F1
:102A200000600140043700200C37002008370020E8
:102A300010370020DFF818C22DE9F0476045044642
:102A40008846174600F0BB807A4B984200D000BE03
:102A50000B224FF40060784B22719A6C774D7849C5
:102A600042F4807225609A64C1F880019A6C22F465
:102A700080729A6400232A46012172482B7102F861
:102A8000083F00EA421602F07042164306F1007653
:102A900005F134027160B160316000EA421102F068
:102AA000704205F1100A05F1380905F1300E0A43AC
:102AB00000EA4A1602F100710AF0704A00EA49126F
:102AC00000EA4E1009F070490EF0704E46EA0A0A0C
:102AD00042EA090240EA0E0000F100700AF10076B5
:102AE00002F100726445336173614B600B605360A7
:102AF00043618361C361D36085F8443085F8483011
:102B000085F84C3000F08F804A4B9C4215D000BEB7
:102B100022680023177327736373C4E90433C4E97D
:102B20000833C4E90A33C4E90C33C4E90E33C4F8EA
:102B30000880A361E361BDE8F087C4F8088000F075
:102B4000D5FB414B1B68DB00B3FBF8F3B3F5000F7B
:102B5000DDD2FF2B4FEAD31645D9226801259646D0
:102B60004FF0000C374902F10C0901EA491009F055
:102B7000704940EA090909F10070C3F3C739C5611A
:102B800082F804905FFA86F90EF8309BB60101EAEC
:102B90004E11C6EB53060EF0704E03F07F0341EA70
:102BA0000E019B1B01F10071FF2BC0F81CC0CD6111
:102BB00001D900BE2268DBB282F83C30A9E70A22C4
:102BC0004FF080454FF480601B4B22719A6C1C497A
:102BD00042F0800225609A64C1F880019A6C22F06C
:102BE00080029A6446E72268002510464FF0010EE5
:102BF000144B02F10C0C03EA4C110CF0704C41EA3E
:102C00000C0101F10071F6B2C1F81CE0157100F879
:102C1000306B03EA401300F07040034303F100738C
:102C2000CD61DD6175E7C4F8088000F05FFB074BFC
:102C30001B6888E7F4390020008003400000014051
:102C400000E100E0E0FFFF01AC350020A8350020E6
:102C5000343A0020026810B5137A044603F00F03DB
:102C60000C2B08D8DFE803F01007182009078107AC
:102C700007070707090000BE10BD036A002B7CD0C0
:102C80002046BDE810401847836A002BF8D100BEEB
:102C9000836A002BF4D110BD436A002BF0D100BE33
:102CA000436A002BECD110BD4549283201EA42139A
:102CB00002F07042134303F100731A6812F0FF0F21
:102CC0000ED0C36A002B6DD02046984722683C4B3B
:102CD000283203EA421302F07042134303F10073F7
:102CE0005A6812F0FF0F0ED0236B002B55D02046F0
:102CF00098472268324B283203EA421302F07042AE
:102D0000134303F100739A6812F0FF0F0ED0636B48
:102D1000002B3DD0204698472268294B283203EAF1
:102D2000421302F07042134303F10073DA6812F0A9
:102D3000FF0F0ED0A36B002B25D0204698472268AA
:102D40001F4B283203EA421302F07042134303F18F
:102D500000731B6913F0FF0F8ED0E36B002B8FD134
:102D600000BEE36B002B8BD110BDC369002B87D154
:102D700000BEC369002B83D110BD00BE036A002BC7
:102D80007FF47EAF10BD00BEA36B002BD7D0D4E77D
:102D900000BE636B002BBFD0BCE700BE236B002BD3
:102DA000A7D0A4E700BEC36A002B8DD102682832E9
:102DB00001EA421102F070430B4303F100738FE705
:102DC000E0FFFF012A4B984203D02A4A904200D0EC
:102DD00000BE0269002A44D0426902B900BE98428E
:102DE00003D0244B984200D0704701690029FBD0E2
:102DF000F0B54769A7B30668437B327D134343733D
:102E0000930630D5D0F818C0A7EB0C050F2D19D9B3
:102E100010250CF1FF340C4423460233A3EB0C02C3
:102E200014F801EF521A5B1A954286F800E08361AC
:102E3000F2D8002D05F1FF3508BF00250CF1010C7B
:102E4000654411E0002DE4D100220B4B043603EA67
:102E5000461306F07046334303F1007342615A6033
:102E6000F0BD00BEB8E78569AF42EDD0F0BD00BF50
:102E7000343A0020F4390020E0FFFF01174B70B511
:102E80009842044603D0164B984200D000BE00255D
:102E90002046FFF7CFFD2268124B02F1300102F10C
:102EA000340603EA4110383201F07041084303EA66
:102EB000461106F0704603EA421302F070423143B5
:102EC0001343094E00F1007001F1007203F1007329
:102ED000C56095601D60666270BD00BF343A002019
:102EE000F4390020E0FFFF01C52D0020194BF0B59B
:102EF000984203D0184CA04200D000BE39B302B9AA
:102F000000BE984203D0144B984200D0F0BD002977
:102F1000FCD0002AFAD04FF0000E0568477B2B7DCD
:102F20001F439B06FBD50F2A94BF94464FF0100C0D
:102F300001EB0E0347730CEB030613F8014B9E42A3
:102F40002C70FAD1B2EB0C02E644E8D1F0BD00BE21
:102F5000D5E700BF343A0020F439002003461A4870
:102F6000F0B4834203D0194CA34200D000BE41B359
:102F700002B900BE834205D01448834202D000202B
:102F8000F0BC70470029FAD0002AF8D01E68587BA0
:102F9000347D2043E7075873F1D5013A0A444C1EAB
:102FA00001E09442ECD020463578023004F8015F0D
:102FB0001E685D7B377D401A3D435D73FD07DFD59D
:102FC000EFE700BED4E700BF343A0020F439002018
:102FD000684620F007018D4601B50348FFF73AFE29
:102FE000BDE8014085467047343A0020684620F02D
:102FF00007018D4601B50348FFF72CFEBDE80140EF
:1030000085467047F4390020F0B4244CB2F5803F77
:10301000266806EB86044FEAC4154FEA840405F1DE
:10302000844504F1402707F5803705F52015C5F8DC
:10303000C4317860B960FD684FEA86034FEA1545F0
:103040004FEA0545FD6020D9154CA2F5803201F507
:103050008031C4E9031200F58030A0600124002013
:1030600033449A0002F1402202F58032D168DB013C
:1030700003F1844303F5201341F4E001D160C3F868
:10308000C041C3F8CC01F0BC70470020F96892B28F
:103090000A430349FA600861E0E700BF30370020C7
:1030A00034370020684620F007018D4679B50124A9
:1030B000234D24492A6802EB82039B0002F5287005
:1030C00003F1402341F8204003F58033D968032AF7
:1030D00021F4E001D96008BF002302EB04001A4C80
:1030E00018BF2860226908BF2B607AB1D4E90201B9
:1030F000164E237D3568042D0CBF00250135356043
:10310000FFF782FFBDE87940854670472B6803EBE7
:1031100083039B0003F1402303F58033DB6813F442
:10312000E003EFD10120094962682B6020700B6039
:10313000002AE7D09047BDE879408546704700BF38
:103140002C37002000002842343700203037002080
:10315000684620F007018D46264B31B51B6813F4F5
:10316000706F1DD0244C216801EB8102D20102F165
:10317000844202F52012D2F808228B003AB10220D4
:103180001E4A5568107015B1A84721688B000B4482
:10319000DB0103F1844303F52013D3F80C3203BBA6
:1031A000144B1B6813F4704F05D00420134B5A685E
:1031B000187002B19047BDE831400122104B85469E
:1031C000C3F8C821C3F8802AC3F84824C3F8842A66
:1031D000C3F8C826C3F8882AC3F84829C3F88C2A3C
:1031E00070470320054B5A681870002AD8D09047C2
:1031F000D6E700BF004001402C37002034370020C4
:1032000000002842164B30B49D6C164945F48015D9
:103210009D649D6C322245F0F075012401F11F0080
:103220009D6401E011F9012F53099B0003F16043F4
:1032300002F01F0203F5614304FA02F28142C3F86F
:103240008020C3F88021EDD1054B30BC9A6C22F070
:10325000F0729A649A6C22F480129A64704700BFEC
:1032600000800340243500201F2801D900BE70478C
:10327000024B53F820301960704700BFA43400207F
:103280001F2801D900BE7047012210B4064C11401E
:10329000D4F888308240814023EA02000143C4F818
:1032A000881010BC704700BF003001404FF602028A
:1032B0000C4BD3F84C11914206D00B4A536943F49E
:1032C00000735361FDF7B6B8D3F8982042F48072CA
:1032D000C3F89820D3F8982022F08062C3F8982091
:1032E000EBE700BF0080034000ED00E030B41F4B6F
:1032F00082B0D3F89820510115D4D3F89820D20485
:1033000002D41B481B4B17E01B4A92E8030002AA99
:1033100002E90300D3F89C2002A9C2F382120A44F6
:1033200012F8082CCAB9D3F85011124A11F0040F40
:10333000124B18BF13460E48114A1249036013601E
:10334000114D124C1248134A0B6013492B60236035
:103350000360116002B030BC7047012A02D00448FB
:103360000E4BE9E74FF40043E5E700BF0080034060
:103370009835002080F0FA024435002040787D0125
:10338000A8350020AC3500209C350020A035002059
:10339000A4350020B035002020BCBE0040420F0004
:1033A00030B583B0FFF72EFF05210320FFF75CFF48
:1033B00001210320FFF764FF03224FF461410D4810
:1033C000FFF75CFD03224FF461410B48FFF756FD08
:1033D000084C094D012220460DF10701FFF7BEFD03
:1033E0000028F7D0012228460DF10701FFF77EFDE6
:1033F000F0E700BFF4390020343A002008B5FDF7AB
:103400004BFEFEF787FDBDE80840FEF789BA00BF16
:1034100070B500260C4D0D4C641BA410A64209D1BA
:1034200000F094F800260A4D0A4C641BA410A64232
:1034300005D170BD55F8043B98470136EEE755F8C5
:10344000043B98470136F2E76435002064350020DC
:10345000643500206835002003460244934200D1C1
:10346000704703F8011BF9E70100000000000000AD
:103470000200000000000000030000000201000044
:103480000000000055534243282E59AF120000009F
:1034900080000C030000001200000000000000008B
:1034A00000000000003001400430014008300140BD
:1034B0000C30014010300140143001401830014000
:1034C0001C300140203001402430014028300140B0
:1034D0002C30014030300140343001403830014060
:1034E0003C30014040300140443001404830014010
:1034F0004C300140503001405430014058300140C0
:103500005C3001406030014064300140683001406F
:103510006C3001407030014074300140783001401F
:103520007C30014032333435363738393A3B3C3D14
:103530003E3F404142434445464748494A4B4C4D33
:103540004E4F50510001000102020303F8B500BFC5
:10355000F8BC08BC9E467047F8B500BFF8BC08BC74
:103560009E467047D5040020B104002000000000F2
:103570000E000000290D0020A90C0020210C0020C5
:103580002D0C0020310C0020450C0020510C002097
:10359000550C0020A10D002080F0FA0280F0FA0204
:1035A00080F0FA0280F0FA0280F0FA0280F0FA026B
:1035B00020BCBE0000000000000000000000000071
:040000052000019145
:00000001FF
