:020000042000DA
:1000000000000120910100207F03002081030020D7
:1000100083030020850300208703002000000000E8
:100020000000000000000000000000008903002024
:100030008B030020000000008D0300208F030020B0
:1000400091030020930300209503002097030020D4
:10005000990300209B0300209D0300209F030020A4
:10006000A1030020A303002005070020290700208A
:10007000A9030020AB030020AD030020AF03002044
:10008000B1030020B3030020B5030020311100208C
:10009000B9030020BB030020BD030020BF030020E4
:1000A000C1030020C3030020C5030020412100201C
:1000B00039220020CB030020CD030020CF030020F5
:1000C000D1030020D3030020D5030020D703002054
:1000D000D9030020DB030020DD030020DF03002024
:1000E000E1030020E3030020E5030020E7030020F4
:1000F000E9030020EB030020ED030020EF030020C4
:10010000F1030020F3030020F5030020F703002093
:10011000F9030020FB030020FD030020FF03002063
:10012000010400200304002005040020070400202F
:10013000090400200B0400200D0400200F040020FF
:1001400011040020130400201504002017040020CF
:10015000190400201B0400201D0400201F0400209F
:10016000210400202304002025040020270400206F
:10017000290400202B0400202D0400202F0400203F
:1001800031040020330400200000000000000000C3
:100190004FF0000BDFF8BE020068DFF8B612096806
:1001A00001F0030100F01C00142801D14BF0020BF8
:1001B000002901D04BF0010BBBF1000F05D0A7487F
:1001C000A749DFF8722200F09FF8A64880470BF09D
:1001D000020ABAF1000F0CD0DFF86E02DFF86E12DF
:1001E00002680B680FB44FF000024FF0FF0302608B
:1001F0000B609D484FF000024FF00103022808D128
:10020000DFF83A120A60DFF83E120A60DFF83212B5
:100210000B60012808D1DFF82A120A60DFF82612E5
:100220000A60DFF81A120B609048002809D1904844
:100230009049914A00F030F890489149914A00F075
:100240002BF891489149924A00F026F8914892493A
:10025000DFF8E22100F058F8BBF1000F10D08F4812
:100260008F49DFF8D62100F04FF80BF0020ABAF1FF
:10027000000F05D00FBC02600B6000BFAFF3008021
:10028000DFF820020FF2030E00474FF000004FF09E
:100290000001DFF814F2FEE72DE9F841884225D08D
:1002A000B2EB010200D5FEE740EA010313F00303BD
:1002B00002D000F01DF819E04FF000039046121133
:1002C000F7D09A421CBFF0C8F0C103F10103F8D186
:1002D00008F00F08B8F1000F08D004780C7000F196
:1002E000010001F10101B8F10108F6D1BDE8F88182
:1002F00008B54FF0000303780B7000F1010001F125
:100300000101013AF7D108BD884237D000F0030659
:10031000002E14D04FF00405A5EB06044FF008079B
:1003200007FB06F8914669FA08F9002C07D080F817
:10033000009069FA07F900F10100013CF5E74FF080
:1003400000060F46091A88460911914614461546BB
:10035000B14206D018BFA0E8340206F10106B1424E
:10036000F8D108F00F08B8F1000F07D002704FEA7B
:10037000322200F10100B8F10108F4E77047FEE70E
:10038000FEE7FEE7FEE7FEE7FEE7FEE7FEE7FEE745
:10039000FEE7FEE7FEE7FEE7FEE7FEE7FEE7FEE735
:1003A000FEE7FEE7FEE7FEE7FEE7FEE7FEE7FEE725
:1003B000FEE7FEE7FEE7FEE7FEE7FEE7FEE7FEE715
:1003C000FEE7FEE7FEE7FEE7FEE7FEE7FEE7FEE705
:1003D000FEE7FEE7FEE7FEE7FEE7FEE7FEE7FEE7F5
:1003E000FEE7FEE7FEE7FEE7FEE7FEE7FEE7FEE7E5
:1003F000FEE7FEE7FEE7FEE7FEE7FEE7FEE7FEE7D5
:10040000FEE7FEE7FEE7FEE7FEE7FEE7FEE7FEE7C4
:10041000FEE7FEE7FEE7FEE7FEE7FEE7FEE7FEE7B4
:10042000FEE7FEE7FEE7FEE7FEE7FEE7FEE7FEE7A4
:10043000FEE7FEE7704700000000A2A2A2A2008033
:100440000340088003401080034030800340348024
:1004500003403880034018080240000000F00020EC
:10046000000001203D2300200000000000000000EB
:10047000000000200000002090010020B0040020B7
:10048000B0040020702C0020702C0020702C002064
:10049000202D0020202D0020603E0020603E002006
:1004A00000F00020C9290020D9250020000000000C
:1004B00010B5054C237833B9044B13B10448AFF39E
:1004C00000800123237010BD202D002000000000BB
:1004D0004C2C002008B5034B1BB103490348AFF374
:1004E000008008BD00000000242D00204C2C0020BE
:1004F00080B483B000AF0346FB71FB7903F01F02A9
:10050000074997F907305B09012000FA02F26033CE
:1005100041F8232000BF0C37BD4680BC704700BFA8
:1005200000E100E080B483B000AF78600B46FB7060
:100530007B6803F070427B685B0123F07E4323F00D
:100540001F031343FA789200134403F100731A4611
:100550000123136000BF0C37BD4680BC704780B4D8
:1005600083B000AF78600B46FB707B6803F070428D
:100570007B685B0123F07E4323F01F031343FA786B
:100580009200134403F100731A460023136000BF66
:100590000C37BD4680BC704780B483B000AF786034
:1005A0000B46FB707B6803F070427B685B0123F0B5
:1005B0007E4323F01F031343FA789200134403F1A0
:1005C00000731B68DBB218460C37BD4680BC704711
:1005D00080B584B000AFF860B9601346FB71FB686A
:1005E000144A934204D0FB68134A934200D000BEE1
:1005F000FB791A46B968F86800F04EF9FB681B6889
:10060000303303211846FFF7AAFFFB681B68343319
:1006100002211846FFF7A3FFFB681B68383300214F
:100620001846FFF79CFFFB68044A5A6200BF103768
:10063000BD4680BD0C2E0020CC2D0020790C002062
:1006400080B489B000AFF860B9607A600023FB61C4
:10065000FB682A4A934204D0FB68294A934200D09F
:1006600000BEBB68002B00D100BE7B68002B00D110
:1006700000BEFB68214A934203D0FB68204A9342A4
:1006800037D1BB68002B34D07B68002B31D0FB689E
:100690001B681B7DFB74FB685A7BFB7C1343DAB23F
:1006A000FB685A73FB7C03F02003002B1ED0102341
:1006B0007B617B680F2B01D87B687B610023BB616A
:1006C0000CE0BA68FB691A44FB681B6812781A7060
:1006D000FB690133FB61BB690133BB61BA697B69AB
:1006E0009A42EED37A68BB69D31A7B607B68002B91
:1006F000CDD100BF2437BD4680BC70470C2E0020F2
:10070000CC2D0020684620F007018D4689B500AF4A
:10071000044800F0ADF900BFBD46BDE889408546FC
:10072000704700BF0C2E0020684620F007018D4660
:1007300089B500AF044800F09BF900BFBD46BDE895
:1007400089408546704700BFCC2D002080B588B019
:1007500000AF786039607B684B4A934204D07B6875
:100760004A4A934200D000BE7B68474A934204D075
:100770007B68464A934240F082807B683A689A6080
:1007800001F0ECFD7B68404A934203D1404B1B686B
:10079000FB6102E03F4B1B68FB61FB69DA003B68D1
:1007A000B2FBF3F3BB61BB695B087B617B699B09AF
:1007B0003B613B699B017A69D31AFB603B69DB01B2
:1007C000BA69D21AFB685B00D31AFA681344FB605B
:1007D0003B69B3F5803F00D300BE3B69B3F5803F72
:1007E0004DD23B69012B2AD97B681B680C3307214A
:1007F0001846FFF797FE3B691A0A7B681B68D2B25E
:100800001A717B681B683A69D2B21A707B681B68E0
:100810000C3307211846FFF7A2FE7B681B683033B4
:1008200007211846FFF77EFEFB68FF2B00D900BEAC
:100830007B681B68FA68D2B283F83C201FE07B68B3
:100840001B680C3307211846FFF76CFE3B691A0A38
:100850007B681B68D2B21A717B681B683A69D2B296
:100860001A707B681B680C3307211846FFF777FE68
:100870007B681B68303307211846FFF770FE00BF06
:100880002037BD4680BD00BF0C2E0020CC2D00209F
:10089000982C00209C2C002080B584B000AFF8601C
:1008A000B9601346FB71FB686D4A934204D0FB6844
:1008B0006C4A934200D000BEFB68694A934216D14D
:1008C000FB684FF080421A60FB680A221A71664B7F
:1008D0009B6C654A43F0800393640A20FFF708FE8F
:1008E000614B9B6C604A23F08003936414E0FB68C7
:1008F0005E4A1A60FB680B221A715B4B9B6C5A4A6A
:1009000043F4807393640B20FFF7F2FD564B9B6C0E
:10091000554A23F480739364FB681B6800221A71A4
:10092000FB681B6800221A72FB681B6808330121F0
:100930001846FFF7F7FDFB681B68083302211846CD
:10094000FFF7F0FDFB681B68083300211846FFF72E
:10095000E9FDFB681B68103304211846FFF7FFFD13
:10096000FB681B68103305211846FFF7F8FDFB688C
:100970001B68343301211846FFF7F1FDFB681B6843
:10098000343300211846FFF7EAFDFB681B68383353
:1009900001211846FFF7E3FDFB681B683033052192
:1009A0001846FFF7DCFDFB681B683033062118464C
:1009B000FFF7D5FDFB681B68303307211846FFF7AA
:1009C000CEFDFB681B68383303211846FFF7C7FDCF
:1009D000FB681B68002283F84420FB681B68002228
:1009E00083F84820FB681B68002283F84C20B96814
:1009F000F868FFF7ABFEFB681B68FA791A73FB68AF
:100A0000BA689A60FB68FA791A73FB6800225A6127
:100A1000FB6800221A61FB6800229A61FB680022D1
:100A20001A62FB6800225A62FB680022DA61FB68E6
:100A300000229A62FB680022DA62FB6800221A63D5
:100A4000FB6800225A63FB6800229A63FB6800225D
:100A5000DA63FB6800225A7300BF1037BD4680BDC1
:100A60000C2E0020CC2D002000800340000001400F
:100A700080B584B000AF78607B687D4A934204D033
:100A80007B687C4A934200D000BE7B68784A9342E0
:100A900004D07B68774A934240F0DA807B681B6819
:100AA0001B7ADBB203F00F03FB73FB7B0C2B00F212
:100AB000CD8001A252F823F0ED0A00204D0C002059
:100AC0000B0B0020650B0020290B00204D0C002093
:100AD000470B00204D0C00204D0C00204D0C002039
:100AE0004D0C00204D0C0020290B00207B689B6AD8
:100AF000002B00D100BE7B689B6A002B00F0AA800F
:100B00007B689B6A78689847A4E07B685B6A002BE7
:100B100000D100BE7B685B6A002B00F09D807B6883
:100B20005B6A7868984797E07B681B6A002B00D166
:100B300000BE7B681B6A002B00F090807B681B6AFC
:100B4000786898478AE07B68DB69002B00D100BE9B
:100B50007B68DB69002B00F083807B68DB69786849
:100B600098477DE07B681B68283300211846FFF713
:100B700013FD0346002B0CD07B68DB6A002B00D1F1
:100B800000BE7B68DB6A002B03D07B68DB6A786879
:100B900098477B681B68283301211846FFF7FCFC47
:100BA0000346002B0CD07B681B6B002B00D100BED2
:100BB0007B681B6B002B03D07B681B6B78689847A6
:100BC0007B681B68283302211846FFF7E5FC0346C3
:100BD000002B0CD07B685B6B002B00D100BE7B68C8
:100BE0005B6B002B03D07B685B6B786898477B68F6
:100BF0001B68283303211846FFF7CEFC0346002B61
:100C00000CD07B689B6B002B00D100BE7B689B6B7C
:100C1000002B03D07B689B6B786898477B681B68C8
:100C2000283304211846FFF7B7FC0346002B19D0E0
:100C30007B68DB6B002B00D100BE7B68DB6B002B7D
:100C400010D07B68DB6B786898470BE000BE0AE049
:100C500000BF08E000BF06E000BF04E000BF02E004
:100C600000BF00E000BF00BF1037BD4680BD00BF21
:100C70000C2E0020CC2D002080B586B000AF78600F
:100C80007B68354A934204D07B68344A934200D053
:100C900000BE7B681B69002B00D100BE7B685B69CE
:100CA000002B00D100BE7B682B4A934203D07B68A7
:100CB0002A4A93424CD17B681B69002B48D07B6841
:100CC0005B69002B44D07B681B681B7DFB737B68D2
:100CD0005A7BFB7B1343DAB27B685A73FB7B03F0CE
:100CE0002003002B24D010233B617B685A697B686A
:100CF0009B69D31ABB60BB680F2B01D8BB683B61F3
:100D000000237B6110E07B681A697B689B691A4449
:100D10007B681B6812781A707B689B695A1C7B6819
:100D20009A617B6901337B617A693B699A42EAD3B4
:100D30007B689A697B685B699A4209D17B6800226B
:100D40005A617B681B68043301211846FFF707FCD2
:100D500000BF1837BD4680BD0C2E0020CC2D0020D2
:100D600080B483B000AF0346FB71FB7903F01F0230
:100D7000064997F907305B09012000FA02F241F8B1
:100D8000232000BF0C37BD4680BC704700E100E067
:100D900080B483B000AF0346FB71FB7903F01F0200
:100DA000074997F907305B09012000FA02F2203366
:100DB00041F8232000BF0C37BD4680BC704700BF00
:100DC00000E100E080B483B000AF0346FB71FB7923
:100DD00003F01F02074997F907305B09012000FA69
:100DE00002F2603341F8232000BF0C37BD4680BCBF
:100DF000704700BF00E100E080B582B000AF7860CE
:100E000039601320FFF7C4FF244B00229A6013209F
:100E1000FFF7D8FF224A7B681360224B00221A702A
:100E2000214B00221A70214B00221A60204B002215
:100E30001A80204B00221A601F4B00221A601F4AA2
:100E40003B6813601E4B00221A801E4B00221A8042
:100E50001D4B00221A601D4B00221A700F4B1B689D
:100E60000E4A23F0200313600C4B1B680B4A43F01F
:100E700010031360094B9B68084A23F00103936039
:100E8000064B9B68054A43F0020393601320FFF76B
:100E900067FF00BF0837BD4680BD00BF006001404E
:100EA000642D0020602D00203C2D0020402D0020CE
:100EB000442D0020482D00204C2D0020502D0020D6
:100EC000542D0020562D0020582D0020612D00208B
:100ED00080B586B000AFF8607A603B600B467B81DE
:100EE0007B89002B00D100BE1320FFF751FF374B49
:100EF00000229A601320FFF765FF00F03DFB344BA2
:100F000001221A70FB681A78324B1A70324AFB6859
:100F10001360324A7B891380314A7B681360314AFF
:100F20003B681360304A3B6A1360304ABB8C1380C5
:100F30002F4B00221A802F4B00221A602E4ABB6AC8
:100F40001360224B9B68214A43F002039360214BBC
:100F50001B78DBB2184600F035FBFB685A1C7B8916
:100F6000013B1946104600F04BFB78617B69013369
:100F70007B617B897A699A4212D2184B1B889AB29C
:100F80007B699BB2D31A9AB2144B1A80124B1A681F
:100F90007B691344104A1360184B01221A700DE04C
:100FA0000E4B00221A800F4B1B68002B03D0134BF3
:100FB00002221A7002E0114B03221A701320FFF76D
:100FC000CFFE00BF1837BD4680BD00BF00600140A6
:100FD000602D00203C2D0020402D0020442D0020BD
:100FE000482D00204C2D0020502D0020542D002095
:100FF000562D00205C2D0020582D0020612D002052
:1010000080B586B000AFF8607A601A460B467B81E7
:1010100013463B810023FB757B89002B00D100BE6A
:101020001320FFF7B5FE354B00229A601320FFF71F
:10103000C9FE00F0A1FA324B01221A70FB681A783F
:10104000304B1A70304AFB681360304A7B8913803A
:101050002F4B00221A602F4B00221A602E4A7B6809
:1010600013602E4A3B8913802D4B00221A802D4A93
:101070003B6A13602C4A7B6A1360224B1B78DBB2FD
:10108000184600F09FFAFB685A1C7B89013B194601
:10109000104600F0B5FA38613B6901333B617B894A
:1010A0003A699A4214D2194B1B889AB23B699BB297
:1010B000D31A9AB2154B1A80134B1A683B69134422
:1010C000114A1360194B01221A700323FB7507E0C4
:1010D0000E4B00221A80154B05221A700323FB7554
:1010E000064B9A68FB7D054913438B601320FFF77D
:1010F00037FE00BF1837BD4680BD00BF006001400D
:10110000602D00203C2D0020402D0020442D00208B
:10111000482D00204C2D0020502D0020542D002063
:10112000562D00205C2D0020582D0020612D002020
:1011300080B582B000AF0F4B5B68FB710D4B9B68B5
:10114000DAB2FB791340FB71FB7903F00203BB7148
:10115000BB79002B01D000F0E7F8FB7903F0010325
:101160007B717B79002B01D000F006F800BF0837B7
:10117000BD4680BD0060014080B584B000AF634BC8
:101180001B78052B6DD0052B00F3AF80012B02D00F
:10119000022B39D0A9E05E4B1B889BB2002B2FD0CD
:1011A0005C4B1B685A4A128892B21146184600F0EE
:1011B00027FA7860564B1B889BB21A467B6893428D
:1011C0000FD2534B1B889AB27B689BB2D31A9AB248
:1011D0004F4B1A804F4B1A687B6813444D4A13607B
:1011E00090E04B4B00221A804B4B1B68002B03D026
:1011F000464B02221A7085E0444B03221A7081E0AC
:1012000000BE00F0B9F97DE0434B1B68002B24D0F1
:10121000424B1B68404A12681146184600F0F0F92C
:10122000B8603D4B1B68BA689A420CD23A4B1A68B8
:10123000BB68D31A384A1360384B1A68BB6813442A
:10124000364A13605EE0364B9B68354A23F0010353
:1012500093602E4B03221A7054E000BE00F08CF90C
:1012600050E02D4B1B68002B1BD12E4B1B68002B15
:1012700014D02C4B1B68294898470346264A136014
:10128000254B1B68002B0CD1254B9B68244A23F06F
:10129000010393601D4B03221A7002E000BE00F0B0
:1012A0006BF91D4B1B68002B09D11D4B9B681C4A19
:1012B00023F001039360154B03221A7022E0174BB1
:1012C0001B68154A12681146184600F099F9F86033
:1012D000114B1A68FB68D31A0F4A13600F4B1A6838
:1012E000FB6813440D4A13600CE00D4B9B680C4ADD
:1012F00023F001039360002000F01EF9034B00224D
:101300001A7000BF00BF1037BD4680BD612D0020A0
:10131000442D0020402D00204C2D0020482D002081
:10132000006001405C2D002080B584B000AF7C4B94
:101330001B69FB81FB8923F4FF4323F07F03BB81FF
:10134000FB89FB72774B1B78052B00F2D68001A23C
:1013500052F823F06D130020E7140020E71400205A
:10136000C513002013140020BB140020BB89002BE0
:1013700000F0CA80FB7AF12B06D0FB7A7B717B7977
:10138000184600F06DF9BFE0674B00221A80674BEA
:101390001B68654A128892B21344FA7A1A70624B3B
:1013A0001B889BB201339AB25F4B1A805F4B1B685C
:1013B0005D4A128892B2134400221A70594B0422DB
:1013C0001A70A1E0BB89002B00F0A080FB7AFB71B2
:1013D000574B1B78DBB2FA799A4215D1524B002257
:1013E0001A80524B1B68504A128892B21344FA7901
:1013F0001A704D4B1B889BB201339AB24A4B1A802C
:10140000484B04221A7081E0FB79184600F028F955
:101410007CE0BB89002B06D0FB7A3B723B7A1846F6
:1014200000F01EF974E0414B1A683F4B1B889BB2D9
:10143000013B13441B78F12B16D13C4B1B683A4AF5
:10144000128892B21344FA7A1A70384B1A68364BE3
:101450001B889BB2013B13441B78184600F000F92F
:10146000304B00221A7053E02F4B1B889AB2314B3D
:101470001B889A4210D2FB7A7B722C4B1B682A4A3B
:10148000128892B213447A7A1A70274B1B889BB247
:1014900001339AB2244B1A80234B1B889AB2254BF6
:1014A0001B889A4234D1204B1B889BB2184600F00F
:1014B00043F81C4B00221A702AE0BB89002B0BD189
:1014C0001A4B1B680133FA7A1A70022000F034F8C4
:1014D000144B00221A701EE0FB7ABB72BB7A1846CE
:1014E00000F0BEF817E0BB89002B13D0FB7ABB716C
:1014F000BB79184600F0B4F80CE0002000F01CF8AE
:10150000084B00221A7006E000BF04E000BF02E0B2
:1015100000BF00E000BF00BF1037BD4680BD00BF68
:1015200000600140612D0020562D0020502D00202C
:101530003C2D0020542D002080B582B000AF034622
:10154000FB800A4B1B68002B0CD0084B1B68084A19
:101550001268F98810469847044B00221A60054B20
:1015600000221A7000BF0837BD4680BD582D0020EC
:10157000502D0020602D002080B582B000AF0E4BB2
:101580001B78DBB2002B13D00C4B1B889BB2184688
:10159000FFF7D2FF0A4B1B68094A43F001031360AF
:1015A000074B1B6803F001037B607B68002BF7D1BE
:1015B00000BF0837BD4680BD602D0020562D00209D
:1015C0000060014080B485B000AF0346FB710B4B57
:1015D0001B680A4A23F004031360084B5B6803F09E
:1015E0000103FB60FB68002BF7D0044AFB79936191
:1015F00000BF1437BD4680BC704700BF006001408B
:1016000080B485B000AF78603960144B1B68134A12
:1016100023F0040313600023FB60104B5B6803F0AE
:101620000103BB600DE07A68FB6813441A780B4B2A
:101630001A61FB680133FB60084B5B6803F0010330
:10164000BB60BB68002B03D0FA683B689A42EAD3C0
:10165000FB6818461437BD4680BC704700600140E7
:1016600080B582B000AF0346FB71064B1B68002BB0
:1016700004D0044B1B68FA791046984700BF08371E
:10168000BD4680BD642D002080B582B000AF78607B
:101690000A4A7B6813600A4B00221A80094B002219
:1016A0001A70094BD3F89830084A13600849094862
:1016B000FFF7A2FB00BF0837BD4680BD6C2D0020A0
:1016C0006A2D0020682D002000800340742D00202A
:1016D000702D0020D916002080B586B000AF0346DB
:1016E000FB71FB79E02B1DD141F28833FB60304B5D
:1016F000D3F8983003F480533B61FB68013BFB60F7
:101700003B69002B02D1FB68002BF0D1294B1B68F1
:10171000002B48D0274B1B68274A5178FA7910468E
:10172000984740E0FB79E12B1FD141F28833BB6041
:101730001F4BD3F8983003F480537B61BB68013BA7
:10174000BB607B69002B02D0BB68002BF0D100F09E
:10175000D9F9184B1B68002B25D0164B1B68164A6D
:101760005178FA79104698471DE0FB79F12B0FD09C
:1017700097F90730002B02DAFB799F2B08D9FB7908
:10178000A02B05D0FB79B02B0DD9FB79B72B0AD84C
:10179000084B1B68002B06D0064B1B68064A517885
:1017A000FA791046984700BF1837BD4680BD00BF84
:1017B000008003406C2D0020702D002080B485B087
:1017C00000AF03463960FB71FB79062B34D801A2C8
:1017D00052F823F0F1170020FD170020091800200F
:1017E0003918002015180020211800202D1800207D
:1017F000174BFB603B6804221A7023E0154BFB601B
:101800003B6803221A701DE0134BFB603B68052206
:101810001A7017E0114BFB603B6803221A7011E04D
:101820000F4BFB603B6802221A700BE00D4BFB6014
:101830003B6802221A7005E03B6800221A70002300
:10184000FB6000BFFB6818461437BD4680BC70477C
:10185000702C0020742C0020782C0020802C00207C
:10186000842C0020882C002080B588B000AFA14BCC
:10187000D3F898307B600023FB6100237B61002359
:10188000FB769C4BD3F84C319BB23B613B694FF6E6
:101890000202934213D03B694FF6030293420ED0EB
:1018A0003B694FF60402934209D03B694FF60702A9
:1018B000934204D03B694FF6060293420CD18D4B04
:1018C000D3F898308C4A1A408A498C4B1343C1F89C
:1018D00098300023FB7607E13B694FF605029342FF
:1018E00040F0C7807B689B0803F00703844A1360BD
:1018F000834B1B68DBB207F10B0211461846FFF75A
:101900005DFFF8600123FB6116E07A4BD3F8983055
:101910007B617B6923F01C037B61FA68FB691344DC
:101920001B789B007A6913437B61724A7B69C2F81A
:101930009830FB690133FB61FB7A1A46FB699342DD
:10194000E3D37B685B0903F007036D4A53606C4B7C
:101950005B68DBB207F10B0211461846FFF72EFF5A
:10196000F8600123FB6116E0624BD3F898307B618D
:101970007B6923F0E0037B61FA68FB6913441B7801
:101980005B017A6913437B615A4A7B69C2F89830DC
:10199000FB690133FB61FB7A1A46FB699342E3D38F
:1019A0007B685B0A03F00703554A9360544B9B68BE
:1019B000DBB207F10B0211461846FFF7FFFEF86095
:1019C0000123FB6116E04B4BD3F898307B617B69B8
:1019D00023F460637B61FA68FB6913441B785B0244
:1019E0007A6913437B61434A7B69C2F89830FB698B
:1019F0000133FB61FB7A1A46FB699342E3D37B68B0
:101A0000DB0C03F007033E4AD3603D4BDB68DBB2DF
:101A100007F10B0211461846FFF7D0FEF8600123CC
:101A2000FB6116E0334BD3F898307B617B6923F47C
:101A300060137B61FA68FB6913441B78DB047A69E5
:101A400013437B612B4A7B69C2F89830FB690133F1
:101A5000FB61FB7A1A46FB699342E3D3254BD3F82B
:101A60009830244A43F48053C2F898300023FB7620
:101A70003AE03B694FF60802934235D17B689B08F8
:101A800003F007031E4A13607B685B0903F007033A
:101A90001B4A53607B685B0A03F00703184A936094
:101AA0007B68DB0C03F00703154AD3600123FB615D
:101AB00017E0134AFB6952F82320114B1B689A4226
:101AC00009D10F4B1B68052B05D80D4AFB6952F84D
:101AD0002330052B02D90123FB7605E0FB69013396
:101AE000FB61FB69032BE4D9FB7E18462037BD461A
:101AF00080BD00BF0080034003E1C7FFD81C300059
:101B0000782D002080B586B000AF0023FB75002340
:101B10003B61694BD3F84C319BB2FB60FB684FF6DD
:101B20000202934213D0FB684FF6030293420ED099
:101B3000FB684FF60402934209D0FB684FF6070298
:101B4000934204D0FB684FF60602934205D15A4AED
:101B50005A4B1B68C2F89830A9E0FB684FF60502A3
:101B6000934240F0A480564B1B68DBB2FA1D11462D
:101B70001846FFF723FEB860FB79FB7517E04E4B64
:101B8000D3F898303B613B6923F01C033B61FB7D3C
:101B9000013BBA6813441B789B003A6913433B61CD
:101BA000454A3B69C2F89830FB7D013BFB75FB7DE4
:101BB000002BE4D1424B5B68DBB2FA1D114618469C
:101BC000FFF7FCFDB860FB79FB7517E03A4BD3F8E3
:101BD00098303B613B6923F0E0033B61FB7D013BB7
:101BE000BA6813441B785B013A6913433B61324A7C
:101BF0003B69C2F89830FB7D013BFB75FB7D002BF8
:101C0000E4D12F4B9B68DBB2FA1D11461846FFF753
:101C1000D5FDB860FB79FB7517E0274BD3F89830FA
:101C20003B613B6923F460633B61FB7D013BBA6828
:101C300013441B785B023A6913433B611E4A3B69BC
:101C4000C2F89830FB7D013BFB75FB7D002BE4D196
:101C50001B4BDB68DBB2FA1D11461846FFF7AEFDE1
:101C6000B860FB79FB7517E0134BD3F898303B61F4
:101C70003B6923F460133B61FB7D013BBA6813446D
:101C80001B78DB043A6913433B610B4A3B69C2F89A
:101C90009830FB7D013BFB75FB7D002BE4D1064BAF
:101CA000D3F89830044A23F48053C2F8983000BF28
:101CB0001837BD4680BD00BF00800340742D002052
:101CC000782D002080B586B000AF786000237B615E
:101CD0001A4B1B78002B14BF01230023DAB2184BD8
:101CE0001B78012B0CBF01230023DBB21340DBB2B6
:101CF000002B14D041F28833FB60124BD3F898309C
:101D000003F480533B61FB68013BFB603B69002BA4
:101D100002D1FB68002BF0D1094B00221A700A4B4C
:101D20001B68002B04D0084B1B68786898477861C3
:101D30007B6918461837BD4680BD00BF982D00202E
:101D4000902C002000800340902D002080B582B0B0
:101D500000AF78600B467B800D4B1B78002B08D0C2
:101D60000C4A0D4B1B68D3600A4A0C4B1B68C2F827
:101D70009C300B4B1B68002B06D0094B1B687A6804
:101D8000013212781046984700BF0837BD4680BD23
:101D9000982D0020008003408C2C0020942D0020E2
:101DA0008C2D002080B588B002AF0346B9607A6000
:101DB000FB730023FB750023BB75FB7B022B02D159
:101DC000012000F06BF82B4AFB7B1370FB7B002B90
:101DD0002DD0294BDB68294A1360274BD3F89C3060
:101DE000274A1360254B1B68234A43F4FF53D360F3
:101DF000214BD3F89C30204A23F4E073C2F89C3086
:101E00001D4BD3F89C301C4A43F40073C2F89C303D
:101E1000194BD3F89C30184A43F48063C2F89C30C5
:101E2000FFF722FD0346FB75164B01221A70FB7D5E
:101E3000002B17D100F0B0F815233B75FB7B7B75A9
:101E4000114A7B681360114ABB68136007F11400E4
:101E50000F4B01930F4B009302230F4A0221FFF710
:101E6000CFF801E0C923BB75BB7D18461837BD46C6
:101E700080BD00BF982D0020008003408C2C0020E6
:101E8000942D0020902C00208C2D0020902D0020DF
:101E90004D1D0020C51C0020882D002080B58AB073
:101EA00004AF0346FB710023BB752C4BD3F84C31B8
:101EB0004FF60202934200D100BE284BD3F84C31BA
:101EC000274A934200D100BE244BD3F84C31254A17
:101ED000934200D100BEFB7903F03003002B06D003
:101EE0001E4BD3F84C311F4A934200D100BEFB7900
:101EF00003F00103002B03D0FFF7B6FC0346BB75CC
:101F0000BB7D002B23D100F047F817233B74FB79EE
:101F10007B7407F11000144B02930223019307F125
:101F20000C030093002300220221FEF7D1FF00F0F2
:101F300049F80346BB82BB8A022B05D13B7B172B9A
:101F400002D17B7BFB7504E0C823FB7501E0C9234C
:101F5000FB75FB7D18461837BD4680BD00800340E9
:101F600002F8010002F802006D1F002080B483B067
:101F700000AF78600B467B80054B00221A70054A43
:101F80007B88138000BF0C37BD4680BC704700BF04
:101F9000682D00206A2D002080B400AF00BF074BE1
:101FA0001B78DBB2002BFAD1044B01221A70044BD0
:101FB00000221A8000BFBD4680BC7047682D0020FB
:101FC0006A2D002080B400AF00BF064B1B78DBB247
:101FD000002BFAD1044B1B889BB21846BD4680BC2F
:101FE000704700BF682D00206A2D002080B485B0A6
:101FF00000AFF860B9607A60FB704D484D4B1A68CD
:10200000F97813469B001344DB01034403F5E273A4
:1020100019604949474B1A6813469B0013449B00BB
:102020000B440433FA681A604349424B1A6813465A
:102030009B0013449B000B440833BA681A603E4966
:102040003C4B1A6813469B0013449B000B440C3313
:102050001B683948374A11681A0C12040B469B005A
:102060000B449B0003440C331A607B68B3F5803F3C
:102070000FD97B68A3F58033304A1361BB6803F541
:1020800080332E4AD360FB6803F580332B4A93607C
:102090001AE02949274B1A6813469B0013449B00FA
:1020A0000B440C331B687A6892B211462248214ACD
:1020B0001268194313469B0013449B0003440C33DE
:1020C00019601E4B00221A611B491A4B1A681346ED
:1020D0009B0013449B000B440C331B681648154AA5
:1020E000126843F4E00113469B0013449B00034431
:1020F0000C3319600E490F4B1A6813469B001344AA
:10210000DB010B4403F5E07301221A600849094B17
:102110001A6813469B001344DB010B4403F5E67376
:1021200000221A6000BF1437BD4680BC704700BF54
:1021300000002842B42D0020004001409C2D0020CA
:10214000684620F007018D4689B500AF354A364B09
:102150001B6803F52873012142F823103349324BE1
:102160001A6813469B0013449B000B440C331B68F6
:102170002E482D4A126823F4E00113469B001344B5
:102180009B0003440C331960274B1B680133264A1C
:102190001360254B1B68042B02D1234B00221A60CD
:1021A000234B1B69002B17D0224B1B68042B03D138
:1021B000204B00221A6004E01E4B1B6801331D4AAD
:1021C00013601B4B98681A4BD968194B1A69184B46
:1021D0001B7DFFF70BFF1EE01449134B1A681346D3
:1021E0009B0013449B000B440C331B6803F4E00377
:1021F000002B10D10C4B00221A600E4B00221A60EB
:102200000B4B01221A700A4B5B68002B03D0084B62
:102210005B680120984700BFBD46BDE88940854600
:10222000704700BF00002842B82D00200040014048
:102230009C2D0020B42D0020684620F007018D461B
:1022400081B583B000AF394B1B683B603B6803F43A
:1022500070633B603B68002B2FD03549354B1A68C3
:1022600013469B001344DB010B4403F502731B6808
:10227000002B0AD0304B02221A702F4B5B68002BC8
:1022800003D02D4B5B68022098472949294B1A68D7
:1022900013469B001344DB010B4403F503731B68D7
:1022A000002B0AD0244B03221A70234B5B68002BAF
:1022B00003D0214B5B68032098471C4B1B683B6095
:1022C0003B6803F470433B603B68002B0AD01A4B19
:1022D00004221A70184B5B68002B03D0164B5B6806
:1022E0000420984700237B6014E011497A68134664
:1022F0009B001344DB010B4403F5E47301221A60D5
:102300000B4A7B6803F52873012142F823107B6890
:1023100001337B607B68032BE7D900BF00BF0C371C
:10232000BD46BDE881408546704700BF0040014082
:1023300000002842B82D00209C2D002080B500AF61
:1023400000F0FAF8044B5B69034A43F400735361ED
:10235000FEF770F800BF80BD00ED00E080B588B0EA
:1023600000AF314BD3F8983003F08063FB61FB6919
:10237000002B4ED12C4BD3F8983003F480537B6163
:102380007B69002B15D1294B294A1A60294B2A4A0F
:102390001A602A4B284A1A60294B274A1A60294B8F
:1023A000234A1A60284B224A1A60284B204A1A6096
:1023B00036E0274A3B1D92E8030083E803001A4BEE
:1023C000D3F89C309B0903F007033B613A1D3B693E
:1023D00013441B78FB73FB7B022B12D0022B14DC03
:1023E000002B02D0012B07D00FE000F035F8B861C8
:1023F000B86900F04FF813E04FF4004000F04AF8DD
:102400000EE0144800F046F80AE0124800F042F8E6
:1024100006E000F021F8B861B86900F03BF8FFE78A
:1024200000BF2037BD4680BD00800340942C0020B3
:1024300000E1F505982C002040787D019C2C0020BF
:10244000A02C0020A42C0020A82C0020AC2C0020C4
:10245000182B002040420F0080B483B000AF0A4B1D
:10246000D3F8503103F004033B603B68002B02D1EA
:10247000064B7B6001E0064B7B607B6818460C379F
:10248000BD4680BC704700BF0080034040787D019E
:1024900080F0FA0280B483B000AF78600C4A7B68A9
:1024A00013600C4A7B6813600B4A7B6813600B4B0C
:1024B0000B4A1A600B4A7B6813600B4A7B681360F7
:1024C0000A4A7B68136000BF0C37BD4680BC70476A
:1024D000942C0020982C00209C2C0020A02C002064
:1024E00040787D01A42C0020A82C0020AC2C0020DA
:1024F00080B483B000AF0E4BD3F84C313B603B68E7
:102500004FF60202934204D03B680A4A934203D03A
:1025100005E001237B6005E002237B6002E00023ED
:102520007B6000BF7B6818460C37BD4680BC704797
:102530000080034002F8010080B582B000AFFFF7D1
:10254000D7FF78607B68012B02D100F007F800E02C
:1025500000BF00BF0837BD4680BD000080B400AF9B
:10256000094BD3F89830084A43F48073C2F8983086
:10257000054BD3F89830044A23F08063C2F89830B2
:1025800000BFBD4680BC70470080034080B487B068
:1025900000AFF860B9607A6000237B6112E0FB68ED
:1025A0001A68B9687B690B441278D2B21A707B69D9
:1025B00001337B61FB681B681B7DDBB203F0010309
:1025C000002BECD17A697B689A42F3D37B69184679
:1025D0001C37BD4680BC704780B582B000AF684BE9
:1025E00003224FF461411846FDF7F2FF03224FF436
:1025F00061416448FDF7ECFF0020FFF745F800BF9C
:102600005F483B4601221946FFF7C0FF0346002BF7
:10261000F6D03B78682BF2D1594B01225A49184623
:10262000FEF70EF856483B4601221946FFF7AEFF6B
:102630000346002BF6D03B786E2B05D1504B012280
:1026400052491846FDF7FCFF00BF4D483B460122AA
:102650001946FFF79BFF0346002BF6D03B78732B00
:1026600005D1474B01224A491846FDF7E9FF00BF53
:1026700043483B4601221946FFF788FF0346002BDB
:10268000F6D03B78612B05D13D4B012241491846DC
:10269000FDF7D6FF00BF3A483B4601221946FFF737
:1026A00075FF0346002BF6D03B78652B05D1344BE4
:1026B000012239491846FDF7C3FF00BF30483B46A9
:1026C00001221946FFF762FF0346002BF6D02C4B80
:1026D00001222D491846FDF7B3FF294B01222F494E
:1026E0001846FDF7ADFF00BF25483B4601221946BD
:1026F000FFF74CFF0346002BF6D03A78284B1A70B0
:102700001F4B012227491846FDF79AFF00BF1C48BE
:102710003B4608221946FFF739FF0346002BF6D047
:102720003B46184600F04CF903461A461E4B1A6009
:10273000134B012214491846FDF782FF184B1B78F2
:10274000322B12D0322B19DC302B02D0312B06D099
:1027500014E0164A16490020FFF724FB0EE0134A46
:1027600013490120FFF71EFB08E00020FEF78CFF55
:102770000E4A0F490220FFF715FB00BFFEE700BF1E
:102780000C2E0020CC2D0020202B0020242B0020FC
:10279000282B00202C2B0020302B0020342B002055
:1027A000C42D0020382B0020C82D0020B527002084
:1027B0009929002080B582B000AF78607B68002B3B
:1027C00006D10B4B01220B491846FDF739FF0BE0F0
:1027D000074B012208491846FDF732FF04483B1D0C
:1027E00008221946FDF72CFF00BF0837BD4680BD03
:1027F0000C2E00203C2B0020402B002080B588B000
:1028000000AF786039603B683B6100237B615B4BC4
:102810001A685B4B1B689A4207D0594B1B68002B08
:1028200003D1564B1B68564A1360554B1A683B68D8
:102830001A44544B1B689A4205D9524B1A68504BA4
:102840001B68D31A3B614E4B1A684E4B1B689A4269
:1028500001D300238EE000BF4B4B01224B491846A9
:10286000FDF7EEFE00BF484807F1080301221946B4
:10287000FFF78CFE0346002BF5D0414B1B68DB08AD
:10288000FB603B7A612B06D13F4807F10C0308221D
:102890001946FDF7D5FE00BF3B4807F108030122AA
:1028A0001946FFF773FE0346002BF5D03B7A612BE8
:1028B00006D1354807F1100304221946FDF7C0FE82
:1028C00000BF314807F1080301221946FFF75EFEF9
:1028D0000346002BF5D03B7A612B06D12A483B6991
:1028E0001A467968FFF752FE7861274B0122284982
:1028F0001846FDF7A5FE00BF234807F10803012293
:102900001946FFF743FE0346002BF5D00123FB6178
:102910000023FB760AE07A68FB6913441B785AB2FD
:10292000FB7E5340FB76FB695B00FB613B69013B2F
:10293000FA699A42EFD93A7AFB7E9A4213D1104B48
:102940001A687B6913440E4A13600C4B1A687B6942
:1029500013440A4A13600C4B01220D491846FDF737
:102960006FFE7B6906E0084B01220A491846FDF715
:1029700067FE71E718462037BD4680BDC02D002098
:10298000BC2D0020C82D00200C2E0020442B002040
:10299000202B0020482B002080B584B000AF786049
:1029A0004FF480510548FFF729FFF8607B68034A20
:1029B0001A60FB6818461037BD4680BD4C2E0020BB
:1029C0000A22002100F09EB870B500260C4D0D4C77
:1029D000641BA410A64209D100F038F900260A4D64
:1029E0000A4C641BA410A64205D170BD55F8043BE7
:1029F00098470136EEE755F8043B98470136F2E771
:102A0000642C0020642C0020642C0020682C002002
:102A10002DE9F0478C468646394E60461CF8014B3E
:102A2000A55D15F00805F8D12D2C33D14FF0010824
:102A30009CF8004000F1020C002B5CD0102B0CD154
:102A4000302C0AD19CF8000000F0DF0058284DD14E
:102A500010239CF801400CF1020C002608F10047FD
:102A6000013FB7FBF3F9304603FB197AA4F13005B7
:102A7000092D18D82C46A34224DD751C07D08145AA
:102A80001DD301D1A2451ADB012600FB03401CF82F
:102A9000014BEBE72B2C08BF9CF80040A84608BF71
:102AA00000F1020CC8E7A4F14105192D01D8373C0B
:102AB000E1E7A4F16105192D04D8573CDBE74FF09D
:102AC000FF36E4E7731C06D122233846CEF80030E7
:102AD00042B9BDE8F087B8F1000F00D04042002AAB
:102AE000F7D00EB10CF1FF311160F2E73024002B6A
:102AF000B3D10823B1E7302CA4D00A23ADE700BF3F
:102B00004B2B002013460A46014602480068FFF797
:102B10007FBF00BFB02C00200001000102020303B0
:102B20006100000064000000680000006B0000000D
:102B3000720000006D0000007A00000070000000CC
:102B400071000000620000006E00002020202020A4
:102B5000202020202828282828202020202020204D
:102B6000202020202020202020202088101010103D
:102B70001010101010101010101010040404040491
:102B800004040404041010101010101041414141BD
:102B900041410101010101010101010101010101A5
:102BA00001010101010110101010101042424242B7
:102BB0004242020202020202020202020202020275
:102BC0000202020202021010101020000000000099
:102BD00000000000000000000000000000000000F5
:102BE00000000000000000000000000000000000E5
:102BF00000000000000000000000000000000000D5
:102C000000000000000000000000000000000000C4
:102C100000000000000000000000000000000000B4
:102C200000000000000000000000000000000000A4
:102C30000000000000000000000000000000000094
:102C4000000000000000000000000000F8B500BF18
:102C5000F8BC08BC9E467047F8B500BFF8BC08BC7D
:102C60009E467047D5040020B104002000000000FB
:102C70000001050701050700020301050700000028
:102C8000040607000507000006070000F11F00000A
:102C90000100000000E1F50540787D0140787D01EC
:102CA00040787D0100E1F50500E1F50500E1F5055D
:102CB000B42C002000000000000000000000000014
:102CC0000000000000000000000000000000000004
:102CD00000000000000000000000000000000000F4
:102CE00000000000000000000000000000000000E4
:102CF00000000000000000000000000000000000D4
:102D000000000000000000000000000000000000C3
:102D100000000000000000000000000000000000B3
:040000052000019145
:00000001FF
