:1000000000F00000910100007F0300008103000068
:100010008303000085030000870300000000000048
:100020000000000000000000000000008903000044
:100030008B030000000000008D03000085A000007D
:100040009103000093030000950300009703000054
:10005000990300009B0300009D0300009F03000024
:10006000A1030000A3030000656900008969000086
:10007000A9030000AB030000AD030000AF030000C4
:10008000B1030000B3030000B5030000415C0000B1
:10009000B112000079150000BD030000BF0300008D
:1000A000C1030000C3030000C50300001571000078
:1000B0000D720000CB030000CD030000CF03000051
:1000C000D1030000D3030000D5030000D7030000D4
:1000D000D9030000DB030000DD030000DF030000A4
:1000E000E1030000E3030000E5030000E703000074
:1000F000E9030000EB030000ED030000EF03000044
:10010000F1030000F3030000F5030000F703000013
:10011000F9030000FB030000FD030000FF030000E3
:1001200001040000030400000504000007040000AF
:10013000090400000B0400000D0400000F0400007F
:10014000110400001304000015040000170400004F
:10015000190400001B0400001D0400001F0400001F
:1001600021040000230400002504000027040000EF
:10017000290400002B0400002D0400002F040000BF
:100180003104000033040000000000000000000003
:100190004FF0000BDFF8BE020068DFF8B612096806
:1001A00001F0030100F01C00142801D14BF0020BF8
:1001B000002901D04BF0010BBBF1000F05D0A7487F
:1001C000A749DFF8722200F09FF8A64880470BF09D
:1001D000020ABAF1000F0CD0DFF86E02DFF86E12DF
:1001E00002680B680FB44FF000024FF0FF0302608B
:1001F0000B609D484FF000024FF00103022808D128
:10020000DFF83A120A60DFF83E120A60DFF83212B5
:100210000B60012808D1DFF82A120A60DFF82612E5
:100220000A60DFF81A120B609048002809D1904844
:100230009049914A00F030F890489149914A00F075
:100240002BF891489149924A00F026F8914892493A
:10025000DFF8E22100F058F8BBF1000F10D08F4812
:100260008F49DFF8D62100F04FF80BF0020ABAF1FF
:10027000000F05D00FBC02600B6000BFAFF3008021
:10028000DFF820020FF2030E00474FF000004FF09E
:100290000001DFF814F2FEE72DE9F841884225D08D
:1002A000B2EB010200D5FEE740EA010313F00303BD
:1002B00002D000F01DF819E04FF000039046121133
:1002C000F7D09A421CBFF0C8F0C103F10103F8D186
:1002D00008F00F08B8F1000F08D004780C7000F196
:1002E000010001F10101B8F10108F6D1BDE8F88182
:1002F00008B54FF0000303780B7000F1010001F125
:100300000101013AF7D108BD884237D000F0030659
:10031000002E14D04FF00405A5EB06044FF008079B
:1003200007FB06F8914669FA08F9002C07D080F817
:10033000009069FA07F900F10100013CF5E74FF080
:1003400000060F46091A88460911914614461546BB
:10035000B14206D018BFA0E8340206F10106B1424E
:10036000F8D108F00F08B8F1000F07D002704FEA7B
:10037000322200F10100B8F10108F4E77047FEE70E
:10038000FEE7FEE7FEE7FEE7FEE7FEE7FEE7FEE745
:10039000FEE7FEE7FEE7FEE7FEE7FEE7FEE7FEE735
:1003A000FEE7FEE7FEE7FEE7FEE7FEE7FEE7FEE725
:1003B000FEE7FEE7FEE7FEE7FEE7FEE7FEE7FEE715
:1003C000FEE7FEE7FEE7FEE7FEE7FEE7FEE7FEE705
:1003D000FEE7FEE7FEE7FEE7FEE7FEE7FEE7FEE7F5
:1003E000FEE7FEE7FEE7FEE7FEE7FEE7FEE7FEE7E5
:1003F000FEE7FEE7FEE7FEE7FEE7FEE7FEE7FEE7D5
:10040000FEE7FEE7FEE7FEE7FEE7FEE7FEE7FEE7C4
:10041000FEE7FEE7FEE7FEE7FEE7FEE7FEE7FEE7B4
:10042000FEE7FEE7FEE7FEE7FEE7FEE7FEE7FEE7A4
:10043000FEE7FEE7704700000000A2A2A2A2008033
:100440000340088003401080034030800340348024
:1004500003403880034018080240000000D000002C
:1004600000F00000C998000000000000000000003B
:10047000000000000000000090010000B004000037
:10048000B004000070AC000070AC000070AC000064
:1004900010AD000010AD000070B8000070B8000092
:1004A00000D0000065A500006D9C00000000000069
:1004B00010B5054C237833B9044B13B10448AFF39E
:1004C00000800123237010BD10AD0000000000006B
:1004D0004CAC000008B5034B1BB103490348AFF314
:1004E000008008BD0000000014AD00004CAC00000E
:1004F00080B483B000AF0346FB710A4AFB79103326
:100500001B01134402331B889BB203F00203002B30
:1005100001D0012300E0002318460C37BD4680BC03
:10052000704700BF0030044080B483B000AF034682
:10053000FB71044AFB79937300BF0C37BD4680BC46
:10054000704700BF0030044080B400AF034B9B7A7B
:10055000DBB21846BD4680BC704700BF0030044087
:1005600080B400AF034B5B889BB21846BD4680BC8D
:10057000704700BF0030044080B400AF034B9B883D
:100580009BB21846BD4680BC704700BF0030044097
:1005900080B483B000AF0346FB71084BDB889AB28E
:1005A000FB79012101FA03F39BB2044913439BB287
:1005B000CB8000BF0C37BD4680BC70470030044084
:1005C00080B483B000AF0346FB71084B1B899AB21D
:1005D000FB79012101FA03F39BB2044913439BB257
:1005E0000B8100BF0C37BD4680BC70470030044013
:1005F00080B400AF074B93F86030DBB203F0040324
:10060000002B0CBF01230023DBB21846BD4680BC83
:10061000704700BF0030044080B400AF054B93F832
:100620006030DBB25BB2DBB2DB09DBB21846BD4641
:1006300080BC70470030044090B482B000AF0446E4
:10064000084611461A462346FB710346BB710B460A
:10065000BB801346FB70FB79002B3BD0BB8803F0BB
:1006600007039BB2002B35D1FB78002B32D0FB78EF
:100670001F2B2FD81A4AFB7910331B011344002279
:100680001A80FB789AB21649FB79013A92B210337C
:100690001B010B441A80124AFB7910331B011344CF
:1006A0001B889AB20E49FB79D20292B210331B0119
:1006B0000B441A800A4AFB7910331B0113441B8830
:1006C00099B20748FB79BA880A4392B210331B01EA
:1006D00003441A8000BF0837BD4690BC704700BF76
:1006E0000030044080B483B000AF0346FB710B4A76
:1006F000FB7910331B01134402331B889AB207495C
:10070000FB7942F0010292B210331B010B44023319
:100710001A8000BF0C37BD4680BC704700300440D3
:1007200080B483B000AF0346FB710B4AFB791033F2
:100730001B01134402331B889AB20749FB7942F02C
:10074000400292B210331B010B4402331A8000BFE7
:100750000C37BD4680BC70470030044080B483B085
:1007600000AF0346FB710B4AFB7910331B011344A6
:1007700002331B889AB20749FB7942F4806292B235
:1007800010331B010B4402331A8000BF0C37BD46E7
:1007900080BC70470030044080B483B000AF034693
:1007A000FB710B4AFB7910331B01134402331B8886
:1007B0009AB20749FB7922F4806292B210331B018E
:1007C0000B4402331A8000BF0C37BD4680BC704713
:1007D0000030044080B483B000AF0346FB710B4A85
:1007E000FB7910331B01134402331B889AB207496B
:1007F000FB7942F4805292B210331B010B44023356
:100800001A8000BF0C37BD4680BC704700300440E2
:1008100080B483B000AF0346FB710B4AFB79103301
:100820001B01134402331B889AB20749FB7922F457
:10083000805292B210331B010B4402331A8000BF66
:100840000C37BD4680BC70470030044090B482B085
:1008500000AF0446084611461A462346FB7103467C
:10086000BB710B46BB801346FB70FB79002B41D05C
:10087000BB88002B3ED0BB8803F007039BB2002B44
:1008800038D1FB781F2B35D81D4AFB7910331B015B
:100890001344043300221A80FB789AB21849FB797A
:1008A000013A92B210331B010B4404331A80144AEC
:1008B000FB7910331B01134404331B889AB210498F
:1008C000FB79D20292B210331B010B4404331A801D
:1008D0000B4AFB7910331B01134404331B8899B274
:1008E0000748FB79BA880A4392B210331B010344CC
:1008F00004331A8000BF0837BD4690BC704700BF64
:100900000030044080B483B000AF0346FB710B4A53
:10091000FB7910331B01134406331B889AB2074935
:10092000FB7922F0010292B210331B010B44063313
:100930001A8000BF0C37BD4680BC704700300440B1
:1009400080B483B000AF0346FB710B4AFB791033D0
:100950001B01134406331B889AB20749FB7942F006
:10096000800292B210331B010B4406331A8000BF81
:100970000C37BD4680BC70470030044080B483B063
:1009800000AF0346FB710B4AFB7910331B01134484
:1009900006331B889AB20749FB7942F4006292B28F
:1009A00010331B010B4406331A8000BF0C37BD46C1
:1009B00080BC70470030044080B483B000AF034671
:1009C000FB710B4AFB7910331B01134406331B8860
:1009D0009AB20749FB7922F4006292B210331B01EC
:1009E0000B4406331A8000BF0C37BD4680BC7047ED
:1009F0000030044080B483B000AF0346FB710B4A63
:100A0000FB7910331B01134406331B889AB2074944
:100A1000FB7942F4005292B210331B010B440633AF
:100A20001A8000BF0C37BD4680BC704700300440C0
:100A300080B483B000AF0346FB710B4AFB791033DF
:100A40001B01134406331B889AB20749FB7922F431
:100A5000005292B210331B010B4406331A8000BFC0
:100A60000C37BD4680BC70470030044080B489B06C
:100A700000AF0346B9607A60FB737B689B087B8399
:100A8000BB687B61BB683B610023FB610CE0FB69D9
:100A90009B007A691A441449FB7B1268083341F8B9
:100AA0002320FB690133FB617B8BFA699A42EED309
:100AB0007B6823F00303FB610BE03A69FB691A448E
:100AC0000949FB7B1278083301F82320FB690133C5
:100AD000FB61FA697B689A42EFD300BF00BF2437FD
:100AE000BD4680BC704700BF0030044080B485B074
:100AF00000AF0346FB710B46BB801346BB7100235E
:100B00007B73FB79002B1FD0BB88072B1CD9114AA4
:100B1000FB799373BB88DB08FB8105E0FB895B08ED
:100B2000FB817B7B01337B73FB8903F00103002B8B
:100B3000F4D0BB791B015AB297F90D3013435AB266
:100B4000044BD2B283F8622000BF1437BD4680BC8C
:100B5000704700BF0030044080B485B000AF03464A
:100B6000FB710B46BB801346BB7100237B73FB7983
:100B7000002B1FD0BB88072B1CD9114AFB7993731C
:100B8000BB88DB08FB8105E0FB895B08FB817B7B85
:100B900001337B73FB8903F00103002BF4D0BB7995
:100BA0001B015AB297F90D3013435AB2044BD2B21B
:100BB00083F8632000BF1437BD4680BC704700BF78
:100BC0000030044080B483B000AF03460A46FB7196
:100BD0001346BB80FB79002B08D0074AFB7993733F
:100BE000054ABB88DB089BB2A2F8643000BF0C3713
:100BF000BD4680BC704700BF0030044080B483B065
:100C000000AF03460A46FB711346BB80FB79002BFD
:100C100008D0074AFB799373054ABB88DB089BB26F
:100C2000A2F8663000BF0C37BD4680BC704700BFDD
:100C30000030044080B483B000AF0346FB71094B21
:100C4000B3F840339AB2FB79012101FA03F39BB266
:100C5000044913439BB2A1F8403300BF0C37BD4693
:100C600080BC70470030044080B483B000AF0346BE
:100C7000FB710A4BB3F840339AB2FB79012101FAB8
:100C800003F39BB2DB439BB2044913409BB2A1F830
:100C9000403300BF0C37BD4680BC70470030044075
:100CA00080B483B000AF0346FB71094BB3F8423305
:100CB0009AB2FB79012101FA03F39BB20449134371
:100CC0009BB2A1F8423300BF0C37BD4680BC7047D1
:100CD0000030044080B483B000AF0346FB710A4B80
:100CE000B3F842339AB2FB79012101FA03F39BB2C4
:100CF000DB439BB2044913409BB2A1F8423300BFCF
:100D00000C37BD4680BC70470030044080B483B0CF
:100D100000AF0346FB710A4AFB7920331B011344E1
:100D200004331A680649FB7942F0010220331B01A3
:100D30000B4404331A6000BF0C37BD4680BC7047BB
:100D40000030044080B483B000AF03460A46FB7114
:100D50001346BB710B4AFB7920331B011344043348
:100D60001A68BB795B0018460649FB7902432033B9
:100D70001B010B4404331A6000BF0C37BD4680BC16
:100D8000704700BF0030044080B483B000AF03461A
:100D90000A46FB711346BB710B4AFB7920331B01DA
:100DA000134404331A68BB799B0018460649FB7943
:100DB000024320331B010B4404331A6000BF0C377D
:100DC000BD4680BC704700BF0030044080B483B093
:100DD00000AF0346FB710A4AFB7920331B01134421
:100DE00004331A680649FB7942F0080220331B01DC
:100DF0000B4404331A6000BF0C37BD4680BC7047FB
:100E00000030044080B483B000AF03460A46FB7153
:100E10001346BB710B4AFB7920331B011344043387
:100E20001968BB791B01DAB20648FB790A43203303
:100E30001B01034404331A6000BF0C37BD4680BC5D
:100E4000704700BF0030044080B483B000AF034659
:100E50000A46FB711346BB710B4AFB7920331B0119
:100E6000134404331968BB795B0203F4C06206487B
:100E7000FB790A4320331B01034404331A6000BF8B
:100E80000C37BD4680BC70470030044080B483B04E
:100E900000AF03463960FB71064AFB791B0113441E
:100EA00003F502733A681A6000BF0C37BD4680BC78
:100EB000704700BF0030044080B483B000AF0346E9
:100EC0003960FB71064AFB791B01134403F5037378
:100ED0003A681A6000BF0C37BD4680BC704700BF3F
:100EE0000030044080B400AF074BB3F802319BB22E
:100EF00003F00403002B01D0012300E00023184677
:100F0000BD4680BC704700BF0030044080B400AFD5
:100F1000064BB3F802319BB2044A23F004039BB2A0
:100F2000A2F8023100BFBD4680BC704700300440CB
:100F300080B400AF074BB3F802319BB203F010034B
:100F4000002B01D0012300E000231846BD4680BCE1
:100F5000704700BF0030044080B400AF064BB3F8C8
:100F600002319BB2044A23F010039BB2A2F8023173
:100F700000BFBD4680BC70470030044080B400AF65
:100F8000074BB3F802319BB203F08003002B01D072
:100F9000012300E000231846BD4680BC704700BF17
:100FA0000030044080B400AF064BB3F802319BB26E
:100FB000044A23F080039BB2A2F8023100BFBD4671
:100FC00080BC70470030044080B483B000AF03465B
:100FD000FB710A4AFB7910331B01134402331B884F
:100FE0009BB203F00403002B01D0012300E0002397
:100FF00018460C37BD4680BC704700BF0030044027
:1010000080B483B000AF0346FB710B4AFB79103309
:101010001B01134402331B889AB20749FB7922F063
:10102000040292B210331B010B4402331A8000BF3A
:101030000C37BD4680BC70470030044080B483B09C
:1010400000AF0346FB710A4AFB7910331B011344BE
:1010500002331B889BB203F02003002B01D0012335
:1010600000E0002318460C37BD4680BC704700BF27
:101070000030044080B483B000AF0346FB710B4ADC
:10108000FB7910331B01134402331B889AB20749C2
:10109000FB7922F0200292B210331B010B44023381
:1010A0001A8000BF0C37BD4680BC7047003004403A
:1010B00080B483B000AF0346FB710A4AFB7910335A
:1010C0001B01134402331B889BB203F08003002BE7
:1010D00001D0012300E0002318460C37BD4680BC38
:1010E000704700BF0030044080B483B000AF0346B7
:1010F000FB710B4AFB7910331B01134402331B882D
:101100009AB20749FB7922F0800292B210331B0198
:101110000B4402331A8000BF0C37BD4680BC7047B9
:101120000030044080B483B000AF0346FB71084A2E
:10113000FB7910331B01134406331B889BB2DBB2CF
:1011400003F00103DBB218460C37BD4680BC704784
:101150000030044080B483B000AF0346FB710A4AFC
:10116000FB7910331B01134406331B889BB203F039
:101170000403002B01D0012300E0002318460C37A4
:10118000BD4680BC704700BF0030044080B483B0CF
:1011900000AF0346FB710B4AFB7910331B0113446C
:1011A00006331B889AB20749FB7922F0040292B2F7
:1011B00010331B010B4406331A8000BF0C37BD46A9
:1011C00080BC70470030044080B483B000AF034659
:1011D000FB710A4AFB7910331B01134406331B8849
:1011E0009BB203F00803002B01D0012300E0002391
:1011F00018460C37BD4680BC704700BF0030044025
:1012000080B483B000AF0346FB710B4AFB79103307
:101210001B01134406331B889AB20749FB7922F05D
:10122000080292B210331B010B4406331A8000BF30
:101230000C37BD4680BC70470030044080B483B09A
:1012400000AF0346FB710A4AFB7910331B011344BC
:1012500006331B889BB203F04003002B01D001230F
:1012600000E0002318460C37BD4680BC704700BF25
:101270000030044080B483B000AF0346FB710B4ADA
:10128000FB7910331B01134406331B889AB20749BC
:10129000FB7922F0400292B210331B010B4406335B
:1012A0001A8000BF0C37BD4680BC70470030044038
:1012B000684620F007018D4681B583B000AFFFF787
:1012C00043F90346FB71FFF74BF90346BB80FFF779
:1012D00053F903467B80FB79DBB203F02003002B3C
:1012E00004D003F025F9284B5B699847FFF780F994
:1012F0000346012B1ED0FFF77BF90346002B19D1C3
:10130000FFF78AF903467B70FB797B78DBB2002B11
:1013100007D1FB79FB79DBB25BB2002B01DA03F07A
:1013200007F9FB79DBB203F01003002B01D003F0C7
:1013300091FAFB79BB889BB203F00103002B01D02B
:1013400000F024F8BB889BB21A464FF6FE73134098
:10135000002B04D0BB889BB2184600F051F87B8864
:101360009BB21A464FF6FE731340002B04D07B88C5
:101370009BB2184600F0A0F800BF0C37BD46BDE890
:1013800081408546704700BF74AC000080B582B0D4
:1013900000AF0023FB710020FFF7C6F8FFF7A2FDA6
:1013A0000346002B05D0FB7943F00D03FB71FFF7DB
:1013B000ADFDFFF7BDFD0346002B05D0FB7943F0E3
:1013C0000C03FB71FFF7C8FDFFF7D8FD0346002BA8
:1013D00005D0FB7943F00B03FB71FFF7E3FDFB79CD
:1013E000002B01D10A23FB71044B9B68FA7910464C
:1013F000984700BF0837BD4680BD00BF74AC0000F1
:1014000080B584B000AF0346FB800123FB7300234B
:10141000BB7347E0FB885B08FB80FB88002B3CD05C
:10142000FB8803F00103002B37D0FB7B1846FFF746
:10143000CBFD0346002B07D0BB7B43F00C03BB73F3
:10144000FB7B1846FFF7DCFDFB7B1846FFF7F6FD3C
:101450000346002B07D0BB7B43F00D03BB73FB7B24
:101460001846FFF707FEFB7B1846FFF721FE0346F1
:10147000002B07D0BB7B43F00B03BB73FB7B1846F1
:10148000FFF732FEBB7B002B01D10A23BB73094B54
:101490001B68B97BFA7B104698470023BB73FB7B24
:1014A0000133FB73FB88002BB4D100BF00BF1037A2
:1014B000BD4680BD74AC000080B584B000AF03466B
:1014C000FB800123FB730023BB734BE0FB885B08AD
:1014D000FB80FB88002B40D0FB8803F00103002B2E
:1014E0003BD0FB7B1846FFF7A9FE0346002B07D035
:1014F000BB7B43F00D03BB73FB7B1846FFF7BAFEC3
:10150000FB7B1846FFF760FE0346002B07D0BB7B32
:1015100043F00B03BB73FB7B1846FFF771FEFB7BAD
:101520001846FFF717FE0346002B07D0BB7B43F09E
:101530000C03BB73FB7B1846FFF728FEFB7B1846AA
:10154000FFF7F0FD0346002B01D00A23BB73094BC4
:101550005B68B97BFA7B104698470023BB73FB7B23
:101560000133FB73FB88002BB0D100BF00BF1037E5
:10157000BD4680BD74AC0000684620F007018D4672
:1015800081B400AF00BFBD4681BC8546704780B5C1
:1015900082B000AF78607B681B78002B72D07B68CC
:1015A0009B69002B6ED07B689B6903F00203002BC4
:1015B00000D000BE00BF7B681B781846FEF798FF7E
:1015C0000346002BF7D17B681B781846FEF7E0FF37
:1015D0007B681A897B685B889A4250D87B685B6A13
:1015E0007A68528893424AD87B689B79012B2CD128
:1015F0007B68DA797B689B6919461046FFF746FCE1
:101600007B681B7B022B0DD17B681B781846FFF78C
:10161000E1F87B68DA797B68DB6919461046FFF7E9
:101620004BFC0CE07B681B781846FFF7F1F87B68F1
:10163000DA797B685B6A19461046FFF73DFC7B68E8
:10164000DB791846FFF762FB1BE07B6818787B6844
:1016500099697B685B6A1A46FFF708FA7B685A6AE1
:101660007B689A627B681A6A7B685B6A1A447B684B
:101670001A627B681B781846FFF734F801E000BE59
:1016800002E001E000BE00BF00BF0837BD4680BDDC
:1016900090B583B000AF0446084611461A4623466B
:1016A000FB710346BB710B467B7113463B713A7E5F
:1016B000FB7911461846FFF7A5FBBA79FB7911466D
:1016C0001846FFF73FFB7A79FB7911461846FFF77A
:1016D0005BFB3A79FB7911461846FFF7B5FBFB79BE
:1016E000F9691846FFF7D2FBFB791846FFF76EFB46
:1016F00000BF0C37BD4690BD80B586B002AF7860A4
:101700000123FB737B685B78012B01D10223FB7300
:101710007B6818787B685B881A46FB7B92FBF3F347
:1017200099B27B685B781A46FFF7E0F97B681A7814
:101730007B689B8819461046FFF744FA7B685B7804
:10174000012B05D17B681B781846FFF7C3FA0AE026
:101750007B685B78002B05D17B681B781846FFF708
:101760009FFA00E000BE7B6818787B68197B7B6875
:101770001A897B681B7DFEF75FFF7B681B78184624
:10178000FEF7CEFF7B689B79012B2AD17B681B7B00
:10179000022B0CD17B681B781846FEF7DFFF7B68B5
:1017A0001B781846FFF716F80123BB730BE07B6824
:1017B0001B781846FEF7F0FF7B681B781846FFF78A
:1017C00027F80023BB737B68D8797B681B787A681D
:1017D00092691146BA7B0191009303230121FFF71F
:1017E00057FF7B681B781846FEF7D2FE00BF103704
:1017F000BD4680BD80B586B002AF78600123FB7323
:101800007B685B78012B01D10223FB737B6818781E
:101810007B685B881A46FB7B92FBF3F399B27B688B
:101820005B781A46FFF798F97B681A787B689B8883
:1018300019461046FFF7E2F97B685B78012B05D16A
:101840007B681B781846FFF70FFA0AE07B685B7825
:10185000002B05D17B681B781846FFF7EBF900E0F9
:1018600000BE7B6818787B68197B7B681A897B6867
:101870001B7DFEF7EBFF7B681B781846FFF760F8CF
:101880007B681B781846FFF73DF87B689B79012B36
:101890002AD17B681B7B022B0CD17B681B781846F6
:1018A000FFF76CF87B681B781846FFF7A3F8012355
:1018B000BB730BE07B681B781846FFF77DF87B68ED
:1018C0001B781846FFF7B4F80023BB737B68D87900
:1018D0007B681B787A6892691146BA7B0191009304
:1018E00003230021FFF7D4FE7B681B781846FEF720
:1018F00067FE00BF1037BD4680BD000080B483B0D6
:1019000000AF0346FB71064BDB7ADAB20449FB7980
:101910001343DBB2CB7200BF0C37BD4680BC7047AF
:101920000030044080B400AF054BDB889BB2044A12
:1019300043F001039BB2D38000BFBD4680BC70471B
:101940000030044080B400AF054BDB889BB2044AF2
:1019500023F001039BB2D38000BFBD4680BC70471B
:101960000030044080B483B000AF0346FB71044AEA
:10197000FB79937300BF0C37BD4680BC704700BF36
:101980000030044080B400AF054B5B78DBB2044A02
:1019900043F00803DBB2537000BFBD4680BC704704
:1019A0000030044080B400AF054B5B78DBB2044AE2
:1019B00023F00803DBB2537000BFBD4680BC704704
:1019C0000030044080B400AF064B93F86030DBB2C7
:1019D000044A43F00103DBB282F8603000BFBD4629
:1019E00080BC70470030044080B400AF064B5B7889
:1019F000DBB203F01003002B01D0012300E0002331
:101A00001846BD4680BC70470030044080B400AF2B
:101A1000064BB3F802319BB2044A43F020039BB259
:101A2000A2F8023100BFBD4680BC704700300440C0
:101A300080B400AF064BB3F802319BB2044A43F0C6
:101A40000A039BB2A2F8023100BFBD4680BC7047BA
:101A50000030044080B400AF064BB3F802319BB2B3
:101A6000044A43F060039BB2A2F8023100BFBD46B6
:101A700080BC70470030044080B400AF064BB3F820
:101A800002319BB2044A43F042039BB2A2F80231F6
:101A900000BFBD4680BC70470030044080B400AF3A
:101AA000084BB3F80231074BB3F802319BB2054A39
:101AB00023F041039BB2A2F8023100BFBD4680BCB7
:101AC000704700BF0030044080B400AF064BB3F84D
:101AD00002319BB2044A43F002039BB2A2F80231E6
:101AE00000BFBD4680BC70470030044080B489B060
:101AF00000AF0346B9607A60FB737B689B087B8309
:101B0000BB687B61BB683B610023FB610CE0FB6948
:101B10009B007A691A441449FB7B1268083341F828
:101B20002320FB690133FB617B8BFA699A42EED378
:101B30007B6823F00303FB610BE03A69FB691A44FD
:101B40000949FB7B1278083301F82320FB69013334
:101B5000FB61FA697B689A42EFD300BF00BF24376C
:101B6000BD4680BC704700BF0030044080B483B0E5
:101B700000AF03460A46FB711346BB710649FB7969
:101B8000BA7902F07F02D2B2103301F8332000BFDD
:101B90000C37BD4680BC70470030044080B483B031
:101BA00000AF0346FB71054AFB799B01DBB282F86B
:101BB0000A3100BF0C37BD4680BC7047003004407E
:101BC00080B483B000AF0346FB710B4AFB7910333E
:101BD0001B01134406331B889AB20749FB7942F074
:101BE000200292B210331B010B4406331A8000BF4F
:101BF0000C37BD4680BC70470030044080B582B0D1
:101C000000AF78600521152005F0F2FB00211520BA
:101C100005F00AFC134B00221A70124B4022DA80A6
:101C2000104B00225A700F4B00229A700D4B00226D
:101C3000DA700C4B00221A710A4B00225A71094BC0
:101C40004022DA80074B00229A60074A7B681360C3
:101C500002F0C6FB002000F01BF800BF0837BD46AD
:101C600080BD00BF30AD00007CAD000080B483B00B
:101C700000AF7860054B00221A70044A7B685360FD
:101C8000002318460C37BD4680BC704774AD000079
:101C900080B584B000AF0346FB710023FB73FB7972
:101CA00003F00303FB731C4AFB7B82F840301A4BA2
:101CB00000221A70184B40225A80FA7B17491346AB
:101CC0005B0013449B000B4406331A88124B1A81A5
:101CD000114B01221A75104B0422DA720E4B4FF48D
:101CE0000042DA630C4802F0A1FBFA7B0B49134671
:101CF0005B0013449B000B4401331B781846FFF72D
:101D00004DFFFB7919460020FFF730FF00231846EE
:101D10001037BD4680BD00BFE4B0000030AD00000C
:101D2000F0B58BB006AF0446084611461A46234666
:101D3000FB710346BB710B467B7113467B8000230E
:101D4000FB73FB7903F00303FB73BA798B491346EA
:101D50001B0113449B000B444033FA7B1A70BA7981
:101D6000864913461B0113449B000B44BA791A7031
:101D7000BA79824913461B0113449B000B4401337B
:101D800000221A70BA797D4913461B0113449B0047
:101D90000B4402333A8D1A80BA79784913461B01F5
:101DA00013449B000B4404337A881A80BA79734930
:101DB00013461B0113449B000B44063397F8342051
:101DC0001A70BA796D4913461B0113449B000B44EA
:101DD000073397F838201A70BA79684913461B01FF
:101DE00013449B000B440833BA8D1A80BA796349B7
:101DF00013461B0113449B000B440A3300221A7044
:101E0000BA795E4913461B0113449B000B440B3304
:101E100000221A70BA79594913461B0113449B00DA
:101E20000B440C3397F83C201A70BA795349134687
:101E30001B0113449B000B4410333A6C1A60BA79AF
:101E40004E4913461B0113449B000B4414330122DB
:101E50001A70BA79494913461B0113449B000B447D
:101E6000183300221A60BA79444913461B011344FF
:101E70009B000B441C3300221A60BA793F49134679
:101E80001B0113449B000B44203300221A60BA79D3
:101E90003A4913461B0113449B000B442433002290
:101EA0001A60BA79354913461B0113449B000B4451
:101EB000283300221A60BA79304913461B011344B3
:101EC0009B000B44343301221A70BA792B49134614
:101ED0001B0113449B000B44383300221A60BA796B
:101EE000264913461B0113449B000B443C337A6C78
:101EF0001A60FA7B224913465B0013449B000B4493
:101F0000033393F800C0FA7B1D4913465B0013446A
:101F10009B000B4404331978FA7B194813465B0085
:101F200013449B00034405331878FA7B144C134682
:101F30005B0013449B00234401331B78FE797D79B9
:101F4000BC7997F83C2004927A6C0392029301903A
:101F50000091634632462946204602F0F0FABA79EB
:101F600013461B0113449B00044A1344184602F015
:101F700097FA002318461437BD46F0BDE4B00000C0
:101F800030AD0000F0B58BB006AF044608461146F0
:101F90001A462346FB710346BB710B467B71134601
:101FA0007B800023FB73FB7903F00303FB73BA7997
:101FB0008B4913461B0113449B000B444033FA7BAF
:101FC0001A70BA79864913461B0113449B000B44CF
:101FD000BA791A70BA79824913461B0113449B00DF
:101FE0000B44013300221A70BA797D4913461B0154
:101FF00013449B000B4402333A8D1A80BA79784916
:1020000013461B0113449B000B4404337A881A8047
:10201000BA79734913461B0113449B000B440633E2
:1020200097F834201A70BA796D4913461B0113448E
:102030009B000B44073397F838201A70BA79684927
:1020400013461B0113449B000B440833BA8D1A80BE
:10205000BA79634913461B0113449B000B440A33AE
:1020600000221A70BA795E4913461B0113449B0083
:102070000B440B3300221A70BA79594913461B01DD
:1020800013449B000B440C3397F83C201A70BA7928
:10209000534913461B0113449B000B4410333A6C05
:1020A0001A60BA794E4913461B0113449B000B4436
:1020B000143301221A70BA79494913461B0113449B
:1020C0009B000B44183300221A60BA794449134626
:1020D0001B0113449B000B441C3300221A60BA7985
:1020E0003F4913461B0113449B000B44203300223D
:1020F0001A60BA793A4913461B0113449B000B44FA
:10210000243300221A60BA79354913461B0113445F
:102110009B000B44283300221A60BA7930491346D9
:102120001B0113449B000B44343301221A70BA790B
:102130002B4913461B0113449B000B4438330022E8
:102140001A60BA79264913461B0113449B000B44BD
:102150003C337A6C1A60FA7B224913465B001344C5
:102160009B000B44033393F800C0FA7B1D491346D0
:102170005B0013449B000B4404331978FA7B194825
:1021800013465B0013449B00034405331878FA7B25
:10219000144C13465B0013449B00234401331B780B
:1021A000FE797D79BC7997F83C2004927A6C039291
:1021B000029301900091634632462946204602F080
:1021C00023FABA7913461B0113449B00044A1344B3
:1021D000184602F089F9002318461437BD46F0BDB1
:1021E00038B2000030AD000090B585B000AF0446B5
:1021F000084611461A462346FB710346BB710B463F
:102200007B7113467B800023FB73FB79002B00D18D
:1022100000BEBB79002B00D100BE7B79002B00D122
:1022200000BE7B88002B00D100BE3B6A002B00D192
:1022300000BEFB7903F00303FB73BA792C49134604
:102240001B0113449B000B444033FA7B1A70BA798C
:10225000274913461B0113449B000B441C337A6A25
:102260001A607B887A6A9A420AD9BA7979882048B2
:1022700013461B0113449B0003442433196009E0F7
:10228000BA791B4913461B0113449B000B442433AA
:102290007A6A1A60BA79164913461B0113449B00E7
:1022A0000B44203300221A60BA79114913461B01EE
:1022B00013449B000B44283300221A60BA790C495E
:1022C00013461B0113449B000B4418333A6A1A60EF
:1022D000BA7913461B0113449B00054A1344184660
:1022E00002F02CFA002318461437BD4690BD00BFFB
:1022F000E4B0000090B585B000AF04460846114632
:102300001A462346FB710346BB710B467B7113468D
:102310007B800023FB73FB79002B00D100BEBB79CF
:10232000002B00D100BE7B79002B00D100BE7B8842
:10233000002B00D100BE3B6A002B00D100BEFB7910
:1023400003F00303FB73BA79294913461B011344B5
:102350009B000B444033FA7B1A70BA792449134628
:102360001B0113449B000B441C337A6A1A607B8860
:102370007A6A9A420AD9BA7979881D4813461B01AC
:1023800013449B0003442433196009E0BA791849C7
:1023900013461B0113449B000B4424337A6A1A60D2
:1023A000BA79134913461B0113449B000B44203395
:1023B00000221A60BA790E4913461B0113449B0090
:1023C0000B44283300221A60BA79094913461B01CD
:1023D00013449B000B4418333A6A1A60BB791846C1
:1023E000FFF7EEFB002318461437BD4690BD00BF33
:1023F00038B2000080B485B000AF0346FB71002303
:10240000FB73FB79002B03D0FB7903F00303FB7311
:10241000FA7B0C4913465B0013449B000B441B786A
:10242000FA799A4200D000BEFA7B064913465B0057
:1024300013449B000B4402331B7818461437BD46E7
:1024400080BC704730AD000080B500AF00F070FC7C
:1024500000F0E6F900F0DEF800BF80BD80B584B082
:1024600000AFF860B9603B601346FB71FB68002B5E
:1024700000D100BEBB68002B00D100BEFB6803F09A
:102480000203002B00D000BEBB6803F00203002B48
:1024900000D000BEFB79802B03D0FB79002B00D04D
:1024A00000BE144ABB689361124AFB681363114A69
:1024B0003B68D3610F4AFB7982F82C300D4B002228
:1024C0001A620C4B00229A620A4B00221A730A4BC2
:1024D00000221A700822F9680020FFF707FB054B5D
:1024E0000522DA72FFF7A4FA002318461037BD461A
:1024F00080BD00BFE4B0000070AC000080B483B0C9
:1025000000AF7860084611461A460346FB700B463A
:10251000BB7013467B70FA78BB781343DAB27B78D2
:102520001343DAB27B681A707B6801333A7C1A7005
:102530007B6803333A7D1A703B7C062B0FD13B7DC1
:10254000032B0CD17B6802333A7E1A707B6804330C
:1025500009221A707B68053304221A700BE07B682D
:10256000023300221A707B68043300221A707B68E1
:10257000053300221A707B680633BA8BD2B21A7008
:10258000BB8B1B0A9AB27B680733D2B21A7000BFAA
:102590000C37BD4680BC704780B400AF024BDB7A7D
:1025A0001846BD4680BC7047E4B0000080B500AF5F
:1025B000104B1B6801330F4A13600E4B1A680E4B09
:1025C000A3FB02139B094FF47A7101FB03F3D31AA7
:1025D000002B0CD1094B1B68DBB21946152004F007
:1025E00023FF064B1B6883F00103044A136000BFFE
:1025F00080BD00BF6CAD0000D34D621084AD000003
:1026000080B400AF024B1B681846BD4680BC7047C3
:102610006CAD000080B582B000AF784B1B78DBB2A8
:10262000012B07D101F074F8744B00221A70744B1F
:1026300000221A70724B1B78062B00F2D08001A288
:1026400052F823F061260000A1260000D5260000E4
:102650005127000095270000DF270000BD2700005C
:10266000FFF7B0F9674B1B78DBB2002B00F0B980A5
:10267000644B00221A70644B1B781946634A0B4660
:102680005B000B449B001344023301221A70FFF7D6
:10269000B7FF03465E4A1360594B01221A70A0E04F
:1026A000FFF7AEFF02465A4B1B68D31A632B40F26A
:1026B0009A808020FFF722F9544B02229A70FFF78C
:1026C0009FFF0346524A1360FFF75CF94C4B02220E
:1026D0001A7088E0FFF794FF02464D4B1B68D31A2F
:1026E000142B02D1FFF75EF97FE0FFF789FF024666
:1026F000474B1B68D31A272B77D9444B5B78012BA8
:1027000007D1FFF771F90346002B02D03F4B00229F
:102710005A70404B1B681B68002B0FD03D4B1B6849
:102720001A68394B1B781846384903465B00034446
:102730009B000B4401331B78184690470020FFF79D
:10274000A7FA324B03229A702D4B03221A704CE0E9
:1027500000F014FD0346FB71FB79002B02D100F061
:10276000F5FC44E0FB790E2B08D1284B04229A702B
:1027700000F0F8FC224B04221A7038E0FB790F2B92
:1027800035D100F0EFFC214B01229A701C4B062240
:102790001A702CE0204B5B685B681C4A127810466C
:1027A0009847174B05221A701A4B1B681B69002BA0
:1027B0001FD0184B1B681B6998471AE0154B1B6804
:1027C0005B69002B07D0134B1B685B69134A92F9B6
:1027D0000020104698470A4B00221A700AE000BFFA
:1027E00008E000BF06E000BF04E000BF02E000BF59
:1027F00000E000BF00BF0837BD4680BD2DAD000022
:1028000070AD00002CAD00002FAD000030AD000019
:1028100088AD00007CAD000074AD00003CAD000050
:1028200080B58AB004AF0023FB6000233B61042322
:10283000FB75C34B1B78112B00F2548201A252F896
:1028400023F000BFE92C00008D280000CF280000F5
:10285000FF28000015290000452900007929000003
:10286000012A0000432A0000ED2A0000612B00002D
:10287000D12B0000252C0000492C0000E92C000081
:10288000E52C0000952C0000C12C000007F10C0085
:10289000082303930023029301230193062300934B
:1028A000002300228021FFF729FEA54B02221A7087
:1028B000A44B1B781A462A2303FB02F3A24A991859
:1028C00007F10C0008238022FFF7C8FD1DE29F4B93
:1028D0001B78DBB2002B00F009829C4B1B78DBB22B
:1028E0000E2B08D1984BDB799AB2994BDA80944B36
:1028F00003221A70FAE1924B0F221A70F6E1FFF7E9
:102900007FFE0346934A1360FFF73CF88C4B04228A
:102910001A70FAE1FFF774FE02468E4B1B68D31A59
:10292000142B02D1FFF73EF8E2E1FFF769FE024601
:10293000884B1B68D31A272B40F2DA81804B052283
:102940001A70D5E10020FFF7A3F907F10C03082264
:102950000021184607F02AFE05237B731023BB7362
:10296000774B06221A7007F10C0107F10C000023C7
:102970000022FFF773FDC8E1744B1B78DBB2002B1C
:1029800000F0B881714B1B78DBB20E2B31D1704B4C
:1029900010221A70704B1B786D4A12781146184637
:1029A000FFF7E4F8674B1B781A462A2303FB02F370
:1029B000654A1344184600F025FE03463B75614BFB
:1029C0001B781946604A2A2303FB01F3134428337A
:1029D0003A7D1A7097F91430002B03D1584B072217
:1029E0001A7087E1564B0F221A705C4A3B7D1370B8
:1029F00080E1574B00221A70514B0F221A7079E177
:102A000007F10C0012230393002302930123019387
:102A100006230093002300228021FFF76FFD484B1F
:102A200008221A70474B1B781A462A2303FB02F32D
:102A3000454A991807F10C0012238022FFF70EFD7A
:102A400063E1424B1B78DBB2002B00F055813F4B1A
:102A50001B78DBB20E2B45D13A4B1B7819463A4A0C
:102A60002A2303FB01F3134408331B8841F60A228F
:102A7000934210D1334B1B781946334A2A2303FB68
:102A800001F313440A331B88B3F5007F03D12C4BA9
:102A900010221A7030E12B4B1B781A462A2303FBB5
:102AA00002F3294A1344184600F0ACFD03467B7537
:102AB000244B1B781946244A2A2303FB01F31344B1
:102AC00028337A7D1A7097F91530002B03D11C4BEF
:102AD00009221A7010E11A4B0F221A701F4A7B7DCF
:102AE000137009E1164B0F221A7005E107F10C0370
:102AF00008220021184607F059FD07F10C000923B0
:102B000003930023029302230193062300930023DF
:102B100000228021FFF7F2FC094B0A221A70094BB0
:102B20001B781A462A2303FB02F31033064A134488
:102B3000191D07F10C0009238022FFF78FFCE4E048
:102B400071AD00002FAD000040AD000070AC000082
:102B500030AD00008CAD0000E4B000003CAD0000E2
:102B60006C4B1B78DBB2002B00F0C880694B1B78E4
:102B7000DBB20E2B28D1684B1B781A462A2303FBA5
:102B800002F31033654A13440433184600F0A0FDE5
:102B90000346BB75604B1B781946604A2A2303FB2A
:102BA00001F313442833BA7D1A7097F91630002BBD
:102BB00003D15B4B0B221A70A0E0594B0F221A7005
:102BC000584ABB7D137099E0554B0F221A7095E05F
:102BD00007F10C0308220021184607F0E7FC07F173
:102BE0000C00122303930023029302230193062374
:102BF0000093002300228021FFF780FC484B0C2229
:102C00001A70454B1B781A462A2303FB02F3103334
:102C1000424A1344191D07F10C0012238022FFF7CA
:102C20001DFC72E03B4B1B78DBB2002B68D0394BAC
:102C30001B78DBB20E2B03D1394B0D221A705FE0EB
:102C4000374B0F221A705BE0002000F0C3FD0346F3
:102C5000FB7597F91730002B06DA314B0F221A70EB
:102C6000304AFB7D13704DE097F91730022B49DC99
:102C700097F917302C4A012102F8331097F91730D1
:102C8000294ADB0013445B68284A9360244B0E22D8
:102C90001A7037E007F10C0308220021184607F0EC
:102CA00085FC09237B730123BB731D4B11221A7012
:102CB000391D07F10C0000238022FFF7CFFB24E031
:102CC000144B1B78DBB2002B1ED0124B1B78DBB2EF
:102CD0000E2B03D1124B0D221A7015E0104B0F2250
:102CE0001A7011E000BE10E000BF0EE000BF0CE063
:102CF00000BF0AE000BF08E000BF06E000BF04E03C
:102D000000BF02E000BF00E000BF00BF1837BD46B3
:102D100080BD00BF70AC00002FAD000040AD0000D2
:102D200071AD00003CAD000074AD000030AD00009E
:102D300090B585B000AF00233B710023FB600023FA
:102D4000BB60FEF7FFFD9F4B1B78DBB23B719D4BD9
:102D500000221A70FEF7E6FD0020FEF703FE9A4BF4
:102D6000DB7A043B092B00F2D88101A252F823F050
:102D70001F310000992D0000292E0000A92E00000F
:102D8000112F0000D92F00001B31000089300000F6
:102D900089300000893000003B79DBB2002B00F065
:102DA000C0813B79DBB20A2B39D1874BDB69002B21
:102DB00005D1854B0922DA72FEF74CFEB1E1824B58
:102DC000DA69814B1B6AD31ABB607F4B1B891A4699
:102DD000BB68934205D97C4B1B891A467A4B5A62D1
:102DE00002E0794ABB685362774B93F82C30802B12
:102DF00005D1754B0622DA72FEF708FE91E1724B9F
:102E000093F82C30002B08D16F4801F062FC6E4B18
:102E10000722DA72FEF758FE83E100BE81E13B79BA
:102E2000DAB2694BDA727CE13B79DBB2002B00F05D
:102E30007A813B79DBB20A2B31D1634801F096FCF1
:102E4000614B1A6A604BDB699A4205D15E4B0822DE
:102E5000DA72FEF711FE66E15B4BDA695A4B1B6AC8
:102E6000D31ABB60584B1B891A46BB68934205D9DD
:102E7000554B1B891A46544B5A6202E0524ABB68B2
:102E80005362514BDB69FB604F4B5B6AFA6813443A
:102E9000FB604D4B0622DA72FEF7B8FD43E13B7949
:102EA000DAB2494BDA723EE13B79DBB2002B00F03B
:102EB0003C813B79DBB20A2B24D1434B1A6A424B4B
:102EC000DB699A4205D1404B0922DA72FEF7C2FD56
:102ED0002BE13D4BDA693C4B1B6AD31ABB603A4B82
:102EE0001B891A46BB68934205D9374B1B891A4682
:102EF000354B5A6202E0344ABB685362324801F0F3
:102F0000E8FB12E13B79DAB22F4BDA7200BE0CE13A
:102F10003B79DBB2002B00F00A812B4B93F8403059
:102F20007B713B79DBB20A2B46D1274B0E22DA723A
:102F3000254B93F840301946244A0B465B000B445E
:102F40009B00134408331B68002B04D0204B1B78D4
:102F5000DBB2012B06D11F4B0E221A701C4B002234
:102F60001A7025E07A79194913465B0013449B00D7
:102F70000B4408331B68DB68002B18D07A7913499F
:102F800013465B0013449B000B4408331B68DC684A
:102F90007A790E4913465B0013449B000B441B785F
:102FA000094AD17A084A126A1846A04700E000BED2
:102FB000054B0422DA72BAE03B79DAB2024BDA72DC
:102FC000B5E000BF2EAD0000E4B0000030AD000061
:102FD00080AD000070AC00003B79DBB2002B00F04C
:102FE000A880564B93F84030BB71FEF757FD3B79F4
:102FF000DBB20A2B43D1514B0E22DA724F4B93F8BE
:10300000403019464E4A0B465B000B449B0013446C
:1030100008331B68002B04D04A4B1B78DBB2012B12
:1030200003D1494B0E221A7025E0BA794449134660
:103030005B0013449B000B4408331B68DB68002BC8
:1030400018D0BA793E4913465B0013449B000B44E9
:1030500008331B68DC68BA79394913465B001344AE
:103060009B000B441B78354AD17A344A126A1846C1
:10307000A04700E000BE314B0422DA7259E03B79F0
:10308000DAB22E4BDA7254E02C4B93F84030FB71DD
:103090002A4B93F840301946294A0B465B000B44F3
:1030A0009B00134408331B68002B04D0254B1B786E
:1030B000DBB2012B07D1214BDA7A234B1A70214B5B
:1030C00000221A7036E0FA791D4913465B0013445A
:1030D0009B000B4408331B68DB68002B18D0FA797F
:1030E000174913465B0013449B000B4408331B68CD
:1030F000DC68FA79124913465B0013449B000B44C9
:103100001B780E4AD17A0D4A126A1846A04700E091
:1031100000BE0A4B0422DA720CE000BE0AE000BFD7
:1031200008E000BF06E000BF04E000BF02E000BF0F
:1031300000E000BF00BF1437BD4690BDE4B0000002
:1031400030AD000080AD000070AC000080B400AF76
:10315000034B01221A7000BFBD4680BC704700BF00
:1031600071AD000080B400AF034B00221A7000BFA5
:10317000BD4680BC704700BF71AD000080B400AF99
:10318000024B1B781846BD4680BC704771AD0000ED
:1031900090B585B000AF03460A46FB711346BB717C
:1031A0000023FB730023BB60FA79734913461B01AC
:1031B00013449B000B4440331B78FB73BB790A2BF1
:1031C00040F09F80FA796C4913461B0113449B0021
:1031D0000B4420331968FA79674813461B011344DE
:1031E0009B0003441C331B68994236D1FA7962492B
:1031F00013461B0113449B000B440B330E221A7021
:10320000FA7B5E4913465B0013449B000B44083372
:103210001B681B69002B1ED0FA7B584913465B00C4
:1032200013449B000B4408331B681C69FA7B534909
:1032300013465B0013449B000B441878FA794E49FF
:1032400013461B0113449B000B4420331A68BB79BF
:103250001946A0478BE000BE89E0FA79464913463B
:103260001B0113449B000B441C331968FA79424834
:1032700013461B0113449B00034420331B68CB1AE5
:10328000BB60FA793C4913461B0113449B000B4475
:10329000283300221A60FA79374913461B01134478
:1032A0009B000B4408331B881A46BB68934213D912
:1032B000FA79314913461B0113449B000B44083330
:1032C0001B88FA7918462C4913461B0113449B00AE
:1032D0000B442433186009E0FA79274913461B018F
:1032E00013449B000B442433BA681A60FA791346DE
:1032F0001B0113449B00204A1344184601F01EFA98
:1033000035E0FA791C4913461B0113449B000B441A
:103310000B33BA791A70FA7B184913465B001344D1
:103320009B000B4408331B681B69002B1ED0FA7BE3
:10333000124913465B0013449B000B4408331B687F
:103340001C69FA7B0D4913465B0013449B000B4438
:103350001878FA79084913461B0113449B000B4463
:1033600020331A68BB791946A04700E000BE00BFB1
:103370001437BD4690BD00BFE4B0000030AD000082
:1033800090B585B000AF03460A46FB711346BB718A
:103390000023FB730023BB60FA796E4913461B01BF
:1033A00013449B000B4440331B78FB73BB790A2BFF
:1033B00040F09F80FA7913461B0113449B00654A35
:1033C0001344184601F005FAFA79624913461B01C5
:1033D00013449B000B4420331968FA795D48134667
:1033E0001B0113449B0003441C331B68994236D1D4
:1033F000FA79584913461B0113449B000B440B33C5
:103400000E221A70FA7B544913465B0013449B004A
:103410000B4408331B685B69002B1ED0FA7B4E49B6
:1034200013465B0013449B000B4408331B685C6924
:10343000FA7B494913465B0013449B000B44187800
:10344000FA79444913461B0113449B000B44203373
:103450001A68BB791946A04777E000BE75E0FA7993
:103460003C4913461B0113449B000B441C33196851
:10347000FA79384813461B0113449B000344203358
:103480001B68CB1ABB60FA79324913461B011344FF
:103490009B000B44283300221A60FA792D49134609
:1034A0001B0113449B000B4408331B881A46BB685E
:1034B000934213D9FA79274913461B0113449B0001
:1034C0000B4408331B88FA791846224913461B011E
:1034D00013449B000B442433186036E0FA791D49ED
:1034E00013461B0113449B000B442433BA681A6033
:1034F0002BE0FA79174913461B0113449B000B4438
:103500000B33BA791A70FA7B134913465B001344E4
:103510009B000B4408331B685B69002B15D0FA7BBA
:103520000D4913465B0013449B000B4408331B6892
:103530005C69FA7B084913465B0013449B000B440B
:103540001B78B97900221846A04700BF1437BD4642
:1035500090BD00BF38B2000030AD000080B483B031
:1035600000AF0346FB71044AFB79137000BF0C37B0
:10357000BD4680BC704700BF2EAD000080B483B054
:1035800000AF786000BF0C37BD4680BC70470000BC
:1035900080B483B000AF03460A46FB711346BB718B
:1035A000054AFB795370054B01221A7000BF0C3796
:1035B000BD4680BC704700BF30AD00002CAD0000A0
:1035C00080B400AF034B01221A7000BFBD4680BC1F
:1035D000704700BF2DAD000080B483B000AF03463C
:1035E000FB7100BF0C37BD4680BC704780B400AF94
:1035F00000BFBD4680BC704780B400AF00BFBD4671
:1036000080BC704780B485B000AF78600023FB7346
:103610007B681B78122B01D0FF23FB737B685B78E0
:10362000012B01D0FE23FB737B685B88B3F5007F21
:103630000BD17B685B88B3F5887F06D17B685B889C
:10364000B3F5807F01D1FD23FB737B68DB79082B09
:103650000DD17B68DB79102B09D17B68DB79202BBE
:1036600005D17B68DB79402B01D1FC23FB73174B21
:103670005B78002B0CD17B685B88B3F5007F01D0B1
:10368000FB23FB737B68DB79402B01D0FA23FB73B0
:103690000E4B5B78022B05D17B68DB79082B01D0C0
:1036A000F923FB73094B5B78012B01D1F123FB73E9
:1036B000064B5B78022B01D1F223FB7397F90F3095
:1036C00018461437BD4680BC704700BF30AD0000BF
:1036D00080B485B000AF78600023FB737B681B78F3
:1036E000092B01D0F823FB737B685B78022B01D098
:1036F000F723FB737B681B7AFA2B01D9F623FB7344
:1037000097F90F3018461437BD4680BC704700004B
:1037100080B500AF284B00221A70284B00221A7087
:10372000274B1B685B68002B03D0254B1B685B682D
:103730009847244B1B78012B06D1224B5B689B6872
:10374000214A1278104698471F4B00221A701E4BD0
:103750004022DA801C4B00225A701B4B00229A70C8
:10376000194B0022DA70184B00221A71164B0022F6
:103770005A71154B4022DA80134B00229A60134B8A
:1037800000221A704FF4A8720021114806F00EFFB3
:103790000C4B00221A70FFF7E5FC3020FEF7AEF864
:1037A0000020FEF775FA00210020FEF7DFF9002067
:1037B000FEF7F4F900BF80BD2DAD00002FAD000075
:1037C0007CAD000074AD000030AD00003CAD0000E9
:1037D00040AD000080B485B000AF0346FB7100230C
:1037E000FB730023FB7350E0FB792D4A2A2101FB78
:1037F00003F3134422331B78092B02D16FF00C031F
:1038000048E0FB7B274ADB0013445B681B681B0C0A
:10381000DAB2FB7922492A2000FB03F30B4422335E
:103820001B789A422ED1FB7B1E4ADB0013445B6857
:103830001B681B0ADAB2FB7919492A2000FB03F343
:103840000B4423331B789A421CD1FB7B154ADB00C7
:1038500013445B681B68DAB2FB7911492A2000FB2C
:1038600003F30B4424331B789A420BD1FB7B0D4AA4
:1038700012F83330002B02D197F90F300AE06FF0C5
:103880000A0307E0FB7B0133FB73FB7B002BABD010
:103890006FF00B0318461437BD4680BC704700BF5D
:1038A00040AD000074AD000080B483B000AF0346AB
:1038B000FB71FB7903F01F02064997F907305B099A
:1038C000012000FA02F241F8232000BF0C37BD4668
:1038D00080BC704700E100E080B483B000AF0346D5
:1038E000FB71FB7903F01F02074997F907305B0969
:1038F000012000FA02F2603341F8232000BF0C37A8
:10390000BD4680BC704700BF00E100E080B483B0DA
:1039100000AF0346FB71064BDB7ADAB20449FB7950
:103920001343DBB2CB7200BF0C37BD4680BC70477F
:103930000030044080B483B000AF0346FB71094BF4
:10394000DB7ADBB25AB297F90730DB435BB2134044
:103950005AB2044BD2B2DA7200BF0C37BD4680BCFB
:10396000704700BF0030044080B400AF054BDB88D7
:103970009BB2044A43F001039BB2D38000BFBD4613
:1039800080BC70470030044080B400AF054B5B78CA
:10399000DBB2044A23F00203DBB2537000BFBD4622
:1039A00080BC70470030044080B400AF064B5B78A9
:1039B000DBB203F00203002B01D0012300E000235F
:1039C0001846BD4680BC70470030044080B400AF4C
:1039D000074B93F86030DBB203F02003002B01D0DB
:1039E000012300E000231846BD4680BC704700BF9D
:1039F0000030044080B400AF074B93F86030DBB276
:103A000003F04003002B01D0012300E000231846FF
:103A1000BD4680BC704700BF0030044080B400AF9A
:103A2000064BB3F802319BB2044A23F001039BB268
:103A3000A2F8023100BFBD4680BC70470030044090
:103A400080B483B000AF03460A46FB711346BB71D6
:103A50000649FB79BA7902F07F02D2B2103301F83D
:103A6000332000BF0C37BD4680BC70470030044097
:103A700080B483B000AF094B032283F87F20074B4B
:103A800093F87F30DBB2FB71FB79DBB2002BF6D110
:103A900000BF00BF0C37BD4680BC704700300440FB
:103AA00080B400AF054B5B78DBB2044A43F02003DF
:103AB000DBB2537000BFBD4680BC7047003004408D
:103AC00080B400AF034B00229A7200BFBD4680BC99
:103AD000704700BF0030044080B400AF054BDB8866
:103AE0009BB2044A23F001039BB2D38000BFBD46C2
:103AF00080BC70470030044080B400AF034B00220C
:103B00001A8100BFBD4680BC704700BF0030044032
:103B100080B483B000AF0023FB71284B93F8603072
:103B2000DBB203F01803BB71BB79182B40D801A29C
:103B300052F823F0993B0000B13B0000B13B00007C
:103B4000B13B0000B13B0000B13B0000B13B0000C5
:103B5000B13B00009F3B0000B13B0000B13B0000C7
:103B6000B13B0000B13B0000B13B0000B13B0000A5
:103B7000B13B0000A53B0000B13B0000B13B0000A1
:103B8000B13B0000B13B0000B13B0000B13B000085
:103B9000B13B0000AB3B00000023FB7108E00123B8
:103BA000FB7105E00223FB7102E00323FB7100BF00
:103BB000FB7918460C37BD4680BC70470030044086
:103BC00080B400AF054B1B8B9BB2DBB203F07F03CD
:103BD000DBB21846BD4680BC704700BF00300440D1
:103BE00080B483B000AF0346FB710B4AFB791033FE
:103BF0001B01134406331B889AB20749FB7922F054
:103C0000010292B210331B010B4406331A8000BF2D
:103C10000C37BD4680BC70470030044080B483B090
:103C200000AF0346FB71064AFB791B01134403F501
:103C300084731B889BB218460C37BD4680BC704706
:103C40000030044080B489B000AF0346B9607A60A8
:103C5000FB737B689B087B83BB687B61BB683B61B4
:103C60000023FB610CE0FB699B007A691A4414494C
:103C7000FB7B1268083341F82320FB690133FB61A9
:103C80007B8BFA699A42EED37B6823F00303FB61D6
:103C90000BE03A69FB691A440949FB7B1278083347
:103CA00001F82320FB690133FB61FA697B689A42C2
:103CB000EFD300BF00BF2437BD4680BC704700BFB4
:103CC0000030044080B489B000AF0346B9607A6028
:103CD000FB737B689B087B83BB687B61BB683B6134
:103CE0000023FB610CE01648FA7BFB699B007969B5
:103CF0000B44083250F822201A60FB690133FB6143
:103D00007B8BFA699A42EED37B6823F00303FB6155
:103D10000CE00B48FA7B3969FB690B44083210F858
:103D20002220D2B21A70FB690133FB61FA697B6809
:103D30009A42EED300BF00BF2437BD4680BC704717
:103D40000030044080B400AF034B0022A3F80221EE
:103D500000BFBD4680BC70470030044080B400AF57
:103D6000064BB3F802319BB2044A43F400639BB2A2
:103D7000A2F8023100BFBD4680BC7047003004404D
:103D800080B400AF064BB3F802319BB2044A23F46F
:103D900000639BB2A2F8023100BFBD4680BC7047F1
:103DA0000030044080B483B000AF0346FB71FB7960
:103DB000022B06D8FB79102B03D8044AFB7982F832
:103DC0000B3100BF0C37BD4680BC7047003004404B
:103DD00080B483B000AF0346FB710B4AFB7910330C
:103DE0001B01134402331B889AB20749FB7922F066
:103DF000040292B210331B010B4402331A8000BF3D
:103E00000C37BD4680BC70470030044080B483B09E
:103E100000AF0346FB710B4AFB7910331B011344BF
:103E200002331B889AB20749FB7922F0200292B232
:103E300010331B010B4402331A8000BF0C37BD4600
:103E400080BC70470030044080B483B000AF0346AC
:103E5000FB710B4AFB7910331B01134402331B889F
:103E60009AB20749FB7942F0400292B210331B012B
:103E70000B4402331A8000BF0C37BD4680BC70472C
:103E80000030044080B483B000AF0346FB710B4A9E
:103E9000FB7910331B01134402331B889AB2074984
:103EA000FB7922F0800292B210331B010B440233E3
:103EB0001A8000BF0C37BD4680BC704700300440FC
:103EC00080B483B000AF0346FB710B4AFB7910331B
:103ED0001B01134402331B889AB20749FB7922F471
:103EE000007292B210331B010B4402331A8000BFE0
:103EF0000C37BD4680BC70470030044080B483B0AE
:103F000000AF0346FB710B4AFB7910331B011344CE
:103F100002331B889AB20749FB7922F4006292B2FD
:103F200010331B010B4402331A8000BF0C37BD460F
:103F300080BC70470030044080B483B000AF0346BB
:103F4000FB710B4AFB7910331B01134406331B88AA
:103F50009AB20749FB7922F0040292B210331B0196
:103F60000B4406331A8000BF0C37BD4680BC704737
:103F70000030044080B483B000AF0346FB710B4AAD
:103F8000FB7910331B01134406331B889AB207498F
:103F9000FB7922F0080292B210331B010B44063366
:103FA0001A8000BF0C37BD4680BC7047003004400B
:103FB00080B483B000AF0346FB710B4AFB7910332A
:103FC0001B01134406331B889AB20749FB7922F080
:103FD000400292B210331B010B4406331A8000BF1B
:103FE0000C37BD4680BC70470030044080B483B0BD
:103FF00000AF0346FB710B4AFB7910331B011344DE
:1040000006331B889AB20749FB7922F4806292B288
:1040100010331B010B4406331A8000BF0C37BD461A
:1040200080BC70470030044080B483B000AF0346CA
:104030000A46FB711346BB71164AFB791B011344F8
:1040400003F585731B78DAB21249FB7902F03F025F
:10405000D2B21B010B4403F585731A700D4AFB792C
:104060001B01134403F585731B78DBB25AB2BB798D
:104070009B015BB2134359B2064AFB79C9B21B01DB
:10408000134403F585730A461A7000BF0C37BD460A
:1040900080BC70470030044080B483B000AF03465A
:1040A0000A46FB711346BB71164AFB791B01134488
:1040B00003F585731B78DAB21249FB7922F03002DE
:1040C000D2B21B010B4403F585731A700D4AFB79BC
:1040D0001B01134403F585731B78DBB25AB2BB791D
:1040E0001B015BB2134359B2064AFB79C9B21B01EB
:1040F000134403F585730A461A7000BF0C37BD469A
:1041000080BC70470030044080B483B000AF0346E9
:104110000A46FB711346BB71144AFB791B01134419
:1041200003F585731B78DAB21049FB7922F00F0290
:10413000D2B21B010B4403F585731A700B4AFB794D
:104140001B01134403F585731B78D9B20748FB792B
:10415000BA790A43D2B21B01034403F585731A707E
:1041600000BF0C37BD4680BC704700BF0030044024
:1041700080B483B000AF03460A46FB711346BB719F
:10418000BB79022B0AD8BB79102B07D8064AFB79DA
:104190001B01134403F20B13BA791A7000BF0C37DA
:1041A000BD4680BC704700BF0030044080B483B07F
:1041B00000AF03460A46FB711346BB71164AFB79F2
:1041C0001B01134403F586731B78DAB21249FB799D
:1041D00002F03F02D2B21B010B4403F586731A7042
:1041E0000D4AFB791B01134403F586731B78DBB280
:1041F0005AB2BB799B015BB2134359B2064AFB79B1
:10420000C9B21B01134403F586730A461A7000BF36
:104210000C37BD4680BC70470030044080B483B08A
:1042200000AF03460A46FB711346BB71164AFB7981
:104230001B01134403F586731B78DAB21249FB792C
:1042400022F03002D2B21B010B4403F586731A70C0
:104250000D4AFB791B01134403F586731B78DBB20F
:104260005AB2BB791B015BB2134359B2064AFB79C0
:10427000C9B21B01134403F586730A461A7000BFC6
:104280000C37BD4680BC70470030044080B483B01A
:1042900000AF03460A46FB711346BB71144AFB7913
:1042A0001B01134403F586731B78DAB21049FB79BE
:1042B00022F00F02D2B21B010B4403F586731A7071
:1042C0000B4AFB791B01134403F586731B78D9B2A3
:1042D0000748FB79BA790A43D2B21B01034403F5BC
:1042E00086731A7000BF0C37BD4680BC704700BF94
:1042F0000030044080B483B000AF03460A46FB712F
:104300001346BB71BB79022B0AD8BB79102B07D897
:10431000064AFB791B01134403F20D13BA791A7094
:1043200000BF0C37BD4680BC704700BF0030044062
:1043300080B483B000AF03463960FB713B68DAB2EA
:104340000649FB7902F07F02D2B21033DB000B4446
:104350001A7100BF0C37BD4680BC70470030044066
:1043600080B485B000AF78602023FB607B685B423F
:104370001A467B6813407B607B68002B02D0FB6889
:10438000013BFB607B689BB2002B02D0FB68103BBB
:10439000FB607B6803F0FF13002B02D0FB68083B37
:1043A000FB607B6803F00F33002B02D0FB68043BFB
:1043B000FB607B6803F03333002B02D0FB68023BC9
:1043C000FB607B6803F05533002B02D0FB68013B98
:1043D000FB60FB6818461437BD4680BC7047000080
:1043E00080B500AFFFF744FBFFF75AFBFFF768FB10
:1043F0001520FFF771FA1520FFF756FAFFF77CFB3F
:10440000FFF76AFB1420FFF767FA1420FFF74CFA56
:10441000054B0122A3F848230220FFF78BFA302036
:10442000FFF774FA00BF80BD0030044080B582B051
:1044300000AF7860FFF786FC7B6893F83430002B80
:1044400002D0FFF78BFC01E0FFF79AFC7B68DB6B87
:10445000B3F5004F00D900BE7B68DB6BB3F5004FAE
:1044600018D87B68DB6B002B07D07B68DA6B7B6826
:10447000DB6B013B1340002B00D000BE7B68DB6B85
:104480001846FFF76DFF0346DBB20133DBB2184677
:10449000FFF788FCFFF768FA00BF0837BD4680BD0C
:1044A00080B582B000AF78607B681B781846FFF754
:1044B0008FFC7B681B781846FFF7E4FC7B681B7851
:1044C0001846FFF7A3FC7B681B781846FFF7F8FC3B
:1044D0007B681B781846FFF711FD7868FDF70CF92B
:1044E00000BF0837BD4680BD80B582B000AF7860A0
:1044F0007B681B781846FFF71FFD7B681B78184602
:10450000FFF738FD7B681B781846FFF751FD7B6885
:104510001B781846FFF76AFD7B681B781846FFF783
:1045200093FC7868FDF766F900BF0837BD4680BD8B
:1045300080B500AFFFF7ECFA0346184680BD90B592
:1045400083B000AF0446084611461A462346FB7165
:104550000346BB710B467B7113463B717A79FB793D
:1045600011461846FFF76CFA97F82830032B1CD138
:1045700097F82030002B18D07B6A002B0CBF01234A
:104580000023DAB27B6AFF2B8CBF01230023DBB24E
:104590001343DBB2002B00D000BE7B6ADAB2FB799A
:1045A00011461846FFF7E4FD15E07B6A002B05D0A5
:1045B0007B6A5A1E7B6A1340002B00D000BE786ACB
:1045C000FFF7CEFE0346DBB20133DAB2FB791146C8
:1045D0001846FFF7CDFDBA79FB7911461846FFF76B
:1045E00093FD97F82820FB7911461846FFF754FDF4
:1045F00097F82020FB7911461846FFF715FD012397
:1046000018460C37BD4690BD90B583B000AF044648
:10461000084611461A462346FB710346BB710B46FA
:104620007B7113463B717A79FB7911461846FFF787
:104630007FFE97F82830032B1CD197F82030002BF1
:1046400018D07B6A002B0CBF01230023DAB27B6AEF
:10465000FF2B8CBF01230023DBB21343DBB2002B03
:1046600000D000BE7B6ADAB2FB7911461846FFF72C
:1046700041FE15E07B6A002B05D07B6A5A1E7B6ADF
:104680001340002B00D000BE786AFFF769FE034696
:10469000DBB20133DAB2FB7911461846FFF72AFE86
:1046A000BA79FB7911461846FFF7F0FD97F82820F4
:1046B000FB7911461846FFF7B1FD97F82020FB79EA
:1046C00011461846FFF772FD002318460C37BD4609
:1046D00090BD80B582B000AF78607B681B78002BFE
:1046E00007D17B689B69002B03D07B681B7B002B69
:1046F00000D000BE7B681B78002B1BD17B689B69B8
:10470000002B17D07B681B7B002B13D17B6818789C
:104710007B6899697B685B6A1A46FFF793FA7B6846
:104720005A6A7B689A627B681A6A7B685B6A1A4479
:104730007B681A6200BF0837BD4680BD80B582B075
:1047400000AF78607B681B78002B07D07B689B6983
:10475000002B03D07B681B7B002B00D100BE786848
:10476000FCF715FF00BF0837BD4680BD80B584B09B
:1047700000AF78600023FB817B681B78002B07D19A
:104780007B689B69002B03D07B681B7B002B00D0D0
:1047900000BEFFF715FA0346FB81FA897B685B6A66
:1047A0009A4200D900BE7B689B69FA8919460020AD
:1047B000FFF788FAFFF732F97B681A6AFB891A4417
:1047C0007B681A62FA897B689A6200BF1037BD461F
:1047D00080BD80B584B000AF78600023FB817B682A
:1047E0001B78002B07D07B689B69002B03D07B686C
:1047F0001B7B002B00D100BE7B681B781846FFF79F
:104800000DFA0346FB81FB899BB21A467B685B6A03
:104810009A4200D900BE7B6818787B689B69FA8948
:1048200092B21946FFF74EFA7B681B781846FFF7DD
:10483000D7F9FB899AB27B681B6A1A447B681A62B3
:10484000FB899BB21A467B689A6200BF1037BD464F
:1048500080BD000090B583B000AF0123FB71FFF76E
:10486000B5F80346002B02D00223FB7106E0FFF7E8
:10487000C1F80346002B01D00123FB71FFF794F828
:104880000346002B01D0FFF77FF8074B1C69FFF7A9
:104890003FF903461A46FB7911461846A04700BF68
:1048A0000C37BD4690BD00BF74AC000080B582B02F
:1048B00000AF7860204B00221A70204B00221A7043
:1048C0001F4B00221A60202200211E4805F06EFEB8
:1048D000242200211C4805F069FE0D2200211B48FE
:1048E00005F064FE1A4B00225A80194B00221A7000
:1048F000184B00225A80174B00221A70164B0022C8
:104900001A70164A7B681360154B00221A60144B0C
:1049100000225A60124B0022DA60114B00229A608A
:104920000F4B00221A74082200210E4805F03EFEAB
:1049300000BF0837BD4680BD30AE000001AE0000AC
:1049400024AE000004AE0000C8AD0000F4AD0000CD
:1049500028AE00002CAE000002AE000034AE000015
:1049600090AD0000ECAD000080B400AF024B1846E3
:10497000BD4680BC704700BF98AC0000B0B596B093
:1049800008AF0023BB620023FB62B24B1B781B2BDA
:1049900000F25A8301A252F823F000BF0D4A000032
:1049A000254A0000A14A00000B4B00004F4B0000BD
:1049B000714B00008B4B0000BB4B0000F54B00001F
:1049C000194C0000814C0000F94C0000254D0000FE
:1049D000574D0000954D0000C14D0000F34D000003
:1049E000254E00003D4E0000794E0000AB4E000009
:1049F000DD4E0000214F0000574F0000894F00009E
:104A0000B94F0000195000001F500000924B1B7856
:104A1000002B00F01B83904B00221A708D4B01225B
:104A20001A7013E38D4B1B781846FDF7E3FC034621
:104A30001A468B4B1A708A4B1B78042B40F0088364
:104A4000FDF7AAFD034687F8323097F83230042B81
:104A500040F0FE82814B1B781846FDF719F907F1EB
:104A6000280308220021184605F0A0FD07F12800C0
:104A70002023039300230293022301930623009330
:104A8000002300228021FDF739FD724B02221A70AB
:104A900007F12800202380227249FDF7DFFCD7E2CE
:104AA000714B1B78002B00F0D582002387F8333040
:104AB0006D4B00221A70002000F04EFD034687F86F
:104AC000333097F93330002B03D1624B03221A7035
:104AD00006E0604B1B221A70644A97F8333013705B
:104AE00000F044FD034687F8333097F93330002B4C
:104AF00003D1584B03221A70ACE2564B1B221A709A
:104B00005A4A97F833301370A4E2594B1B681B685C
:104B1000002B03D0564B1B681B68984707F12803EE
:104B200008220021184605F041FD092387F82930A5
:104B30004C4B5B7987F82A30464B04221A7007F1F8
:104B40002800002380224749FDF788FCA3E2464B5A
:104B50001B78002B00F08082434B00221A70FDF777
:104B60004FFD0346434A13603A4B05221A7073E225
:104B7000FDF746FD02463F4B1B68D31A3C2B40F223
:104B80006D82344B06221A7068E2364BDA7A07F1EE
:104B90002803FE21184600F09BFA304B1B7818467C
:104BA000FDF776F82B4B07221A7007F12800012336
:104BB00080223149FDF752FC6DE22B4B1B78002B14
:104BC00000F04E82284B1B780E2B03D1214B0A227A
:104BD0001A700BE0244B1B780D2B06D1264B0022BC
:104BE0001A601C4B08221A7000E000BE1E4B002207
:104BF0001A7035E2214A07F1200392E8030083E8A6
:104C00000300144B09221A7007F1200000238022B0
:104C10001949FDF723FC3EE2134B1B78002B00F0F3
:104C20002182114B1B780E2B03D10A4B0A221A70DA
:104C30000BE00D4B1B780D2B06D1064B1B221A7077
:104C40000A4BFE221A7000E000BE074B00221A70C9
:104C500008E200BF30AE0000A4AD000002AE0000CC
:104C600003AE000004AE0000A5AD000031AE0000B0
:104C700034AE000038AE000024AE000010A60000E4
:104C80009C4B18789C4B1A789B4B5B884FF40041E7
:104C90000791002106910221059104210491002130
:104CA00003910121029101934FF4007300934FF49B
:104CB00080730121FDF734F88E4B18788F4B1A78EA
:104CC0008E4B5B884FF40041079100210691022131
:104CD0000591042104910021039101210291019386
:104CE0004FF4007300934FF440730121FDF74AF92C
:104CF000834B0B221A70CEE1824A0021002000F083
:104D000027FA7C4B18787C4B1A787B4B5B881F21E9
:104D100001917C4900910121FDF766FA784B0C2244
:104D20001A70B8E1784B1B78002B00F09D81764B10
:104D300000221A70724B0D221A706E4B18786F4B4E
:104D40001A786E4B5B880D21019170490091012109
:104D5000FDF7D0FA88E16E4B1B78002B00F08681BE
:104D60006B4B00221A70694B1B7B002B03D1644BE9
:104D70000E221A707AE1654B1B7B012B03D1604B2D
:104D800012221A7072E1614B1B7B022B40F06E8184
:104D900000BE6BE15B4A2421122000F0D9F9584B88
:104DA0000F221A70534B1878534B1A78524B5B886A
:104DB0001F210191534900910121FDF715FA6AE184
:104DC000514B1B78002B00F053814F4B00221A707F
:104DD0004B4B10221A70474B1878484B1A78474BA8
:104DE0005B88242101914B4900910121FDF782FA52
:104DF0003EE1474B1B78002B00F03C81444B0022E6
:104E00001A703F4B11221A703A4B18783B4B1A78A4
:104E10003A4B5B880D2101913C4900910121FDF73E
:104E200069FA27E13A4B1B78002B00F02581384BBB
:104E300000221A70324B16221A701DE1364B3C4686
:104E40001D460FCD0FC495E80F0007C42380023420
:104E50001B0C23702A4B13221A70264B1878264BF2
:104E60001A78254B59881F2301933B4600930B4624
:104E70000121FDF7B9F90EE1234B1B78002B00F05F
:104E8000FD80214B00221A701D4B14221A70194B01
:104E900018781A4B1A78194B5B88122101911F4917
:104EA00000910121FDF726FAE8E0194B1B78002B51
:104EB00000F0E680164B00221A70114B15221A7072
:104EC0000C4B18780D4B1A780C4B5B880D21019117
:104ED0000E4900910121FDF70DFAD1E00C4B1B7832
:104EE000002B00F0CF800A4B00221A70044B0B22DB
:104EF0001A70C7E002AE00002CAE000028AE000021
:104F000030AE0000A8AD0000A6AD0000F4AD00007A
:104F1000A7AD0000C8AD000018A600003CAE000020
:104F20005F4B0193002300930023002200212520E2
:104F300000F048F95B4B17221A705B4B18785B4BFB
:104F40001A785A4B5B881F21019155490091012124
:104F5000FDF74AF99FE0564B1B78002B00F0948038
:104F6000544B00221A704F4B18221A704E4B18786F
:104F7000514B1A78504B5B88082101914F490091A1
:104F80000121FDF7B7F97FE04A4B1B78002B7DD05C
:104F9000484B00221A70434B19221A70424B187862
:104FA000454B1A78444B5B880D210191444900918F
:104FB0000121FDF79FF969E03E4B1B78002B67D07C
:104FC00000237B633B4B00221A703C4B1B791A0673
:104FD0003A4B5B791B041A43384B9B791B021343F2
:104FE000364AD27913437B637B6BB3F5007F06D0DF
:104FF0002C4B1B221A70334BFD221A7048E0324BA7
:105000001B685B68002B03D02F4B1B685B689847BD
:10501000244B1A221A703BE000F022FB3BE02B4BA2
:105020001B78002B36D1294B01221A70264B1B68A6
:10503000DB68002B2ED0244B1B68DB68214A92F9D9
:1050400000201046984725E000BE24E000BF22E083
:1050500000BF20E000BF1EE000BF1CE000BF1AE060
:1050600000BF18E000BF16E000BF14E000BF12E070
:1050700000BF10E000BF0EE000BF0CE000BF0AE080
:1050800000BF08E000BF06E000BF04E000BF02E090
:1050900000BF00E000BF00BF3837BD46B0BD00BF55
:1050A000A8AD000030AE000002AE00002CAE000043
:1050B000A6AD0000A7AD000028AE0000ECAD0000DA
:1050C000F4AD000031AE000034AE00004EAE000082
:1050D00080B483B000AF78600B46FB701346BB70A2
:1050E0007B6821221A707B680133FA781A707B681A
:1050F000023300221A707B68033300221A707B6827
:105100000433BA781A707B68053300221A70FB7872
:10511000FE2B07D17B68063301221A707B68A1221F
:105120001A700BE0FB78FF2B07D17B680633002257
:105130001A707B6821221A7000E000BE7B6807337A
:1051400000221A7000BF0C37BD4680BC70470000BB
:1051500080B584B000AF0346B9607A60FB731F224C
:105160000021786805F022FA7B68144A1A607B688F
:10517000134A5A607B68BA689A60FB7B002B03D1A4
:105180007B6800221A730AE0FB7B122B02D0FB7BA8
:10519000032B03D17B6880221A7300E000BE7B687A
:1051A00006229A737B68FA7BDA73BB68DAB27B6893
:1051B000DA7400BF1037BD4680BD00BF555342436F
:1051C0005040302080B582B000AF3A601A460346A6
:1051D000FB710B46BB711346BB801F22002178690F
:1051E00005F0E4F97B692A4A1A607B69294A5A600A
:1051F000FB792A2B03D17B6900221A7308E0FB7923
:10520000282B02D0FB79252B02D17B6980221A73CF
:105210007B690A229A737B69FA79DA73FB79282B06
:1052200002D0FB792A2B27D1BB883A8A02FB03F3F1
:105230001A467B699A607B69BA791A743B681B0EBF
:10524000DAB27B695A743B681B0CDAB27B699A74D8
:105250003B681B0ADAB27B69DA743B68DAB27B69B5
:105260001A75BB881B0A9BB2DAB27B699A75BB8838
:10527000DAB27B69DA7507E0FB79252B03D17B690C
:1052800008229A6000E000BE00BF0837BD4680BD1E
:10529000555342435040302080B400AF024B1B783E
:1052A0001846BD4680BC704730AE000080B485B063
:1052B00000AFF860B9607A603B600A4AFB6813602F
:1052C000084ABB685360074A7B689360054A3B689D
:1052D000D360044B01221A74002318461437BD46CC
:1052E00080BC704790AD000080B400AF024B1B7CC7
:1052F0001846BD4680BC704790AD000080B400AF3A
:10530000084B1B781A06074B5B781B041A43054BA6
:105310009B781B021343034AD27813431846BD46B9
:1053200080BC7047ECAD000080B400AF084B1B7927
:105330001A06074B5B791B041A43054B9B791B022A
:105340001343034AD27913431846BD4680BC7047C5
:10535000ECAD000080B586B002AFF860B9607A604D
:105360007B689BB20A4A01924FF400720092BA68BD
:1053700000212820FFF726FF7B685A02054BF968B9
:105380000348FFF793FF002318461037BD4680BD42
:10539000A8AD0000F4AD000080B586B002AFF860A3
:1053A000B9607A607B689BB20A4A01924FF400723E
:1053B0000092BA6800212A20FFF704FF7B685A0296
:1053C000054BF9680348FFF771FF002318461037B3
:1053D000BD4680BDA8AD0000F4AD000080B483B030
:1053E00000AF0346FB71064AFB791370054B01229F
:1053F0001A70012318460C37BD4680BC704700BFA9
:1054000002AE0000A4AD000080B582B000AF03463C
:10541000FB71244B1B689B68002B03D0214B1B683E
:105420009B689847204B00221A70204B00221A706C
:105430001F4B00221A60202200211E4805F0B6F8FA
:10544000242200211C4805F0B1F80D2200211B4840
:1054500005F0ACF81A4B00225A80194B00221A7042
:10546000184B00225A80174B00221A70164B00224C
:105470001A70164B00221A60144B00225A60134B0C
:105480000022DA60114B00229A60104B00221A743D
:10549000082200210E4805F089F801231846083734
:1054A000BD4680BD34AE000030AE000001AE00004D
:1054B00024AE000004AE0000C8AD0000F4AD000052
:1054C00028AE00002CAE000002AE000090AD00003F
:1054D000ECAD000080B483B000AF03463A60FB71CE
:1054E0000B46BB71BB79002B03D0064ABB79137006
:1054F00002E0044B0E221A70012318460C37BD46F9
:1055000080BC7047A5AD000080B483B000AF0346F7
:105510003A60FB710B46BB71044ABB7913700123DF
:1055200018460C37BD4680BC704700BFA6AD0000D2
:1055300080B483B000AF03463A60FB710B46BB7189
:10554000044ABB791370012318460C37BD4680BC52
:10555000704700BFA7AD000080B483B000AF786093
:10556000002318460C37BD4680BC704780B400AF9E
:10557000384B5B7D03F00203002B02D14FF0FF3369
:1055800064E0344B1B7F03F00203002B02D14FF089
:10559000FF335BE02F4B1B7D5BB2002B26DA2D4BDC
:1055A0001B7D03F07F03DAB22B4B1A70294BDB7D96
:1055B0001B021AB2274B9B7D1BB213431BB29AB23C
:1055C000254B5A80234BDB7E03F07F03DAB2234B5B
:1055D0001A70204B9B7F1B021AB21E4B5B7F1BB2C3
:1055E00013431BB29AB21D4B5A802EE0194BDB7E3F
:1055F0005BB2002B26DA174BDB7E03F07F03DAB2B7
:10560000154B1A70134B9B7F1B021AB2114B5B7F19
:105610001BB213431BB29AB20F4B5A800D4B1B7D2A
:1056200003F07F03DAB20D4B1A700A4BDB7D1B02CD
:105630001AB2084B9B7D1BB213431BB29AB2074BA5
:105640005A8002E04FF0FF3300E000231846BD46C9
:1056500080BC704704AE000028AE00002CAE0000F5
:1056600090B583B002AF7B4B1B78052B00F2E38033
:1056700001A252F823F000BF91560000A35600008B
:10568000C9560000695700001B5800003B58000035
:10569000714B1B7C012B40F0D2806E4B01221A70A3
:1056A000CDE06C4B02221A706C4B18786C4B1A7858
:1056B0006B4B5988684B1B681F24019400930B4661
:1056C0000121FCF791FDC1E0664B1B78002B00F037
:1056D000B880644B00221A705F4B9B68002B30D05F
:1056E0005D4B1B680C331B785BB2002B14DA5B4BF1
:1056F00018785D4B19785C4B5C88574B5B68564A51
:1057000092680192009323460A460121FCF7F2FDBC
:10571000504B03221A7094E0504B1878504B197874
:105720004F4B5C884C4B5B684B4A926801920093EC
:1057300023460A460121FCF757FD464B03221A7007
:105740007FE0444B04221A70444B1878464B1A7879
:10575000454B5988404BDB680D24019400930B4660
:105760000121FCF7C7FD6CE03B4B9B68002B3AD056
:10577000394B1B680C331B785BB2002B19DA3B4B9F
:105780001B78002B5FD0394B00221A70314B04225A
:105790001A70324B1878344B1A78334B59882E4B89
:1057A000DB680D24019400930B460121FCF7A2FD58
:1057B00049E02C4B1B78002B45D02A4B00221A7055
:1057C000244B04221A70254B1878274B1A78264B45
:1057D0005988214BDB680D24019400930B4601216D
:1057E000FCF788FD2FE0214B1B78002B2BD01F4BA3
:1057F00000221A70174B04221A70184B18781A4B93
:105800001A78194B5988144BDB680D2401940093C6
:105810000B460121FCF76EFD15E0144B1B78002BA5
:1058200013D0124B00221A700B4B00221A74094B32
:1058300000221A7009E000BE08E000BF06E000BFC9
:1058400004E000BF02E000BF00E000BF00BF04377B
:10585000BD4690BD01AE000090AD000002AE00005C
:105860002CAE0000A6AD000028AE0000A7AD0000E1
:1058700080B483B000AF0346FB71FB7903F01F02D5
:10588000064997F907305B09012000FA02F241F856
:10589000232000BF0C37BD4680BC704700E100E00C
:1058A00080B483B000AF0346FB71FB7903F01F02A5
:1058B000074997F907305B09012000FA02F220330B
:1058C00041F8232000BF0C37BD4680BC704700BFA5
:1058D00000E100E080B483B000AF0346FB71FB79C8
:1058E00003F01F02074997F907305B09012000FA0E
:1058F00002F2603341F8232000BF0C37BD4680BC64
:10590000704700BF00E100E080B582B000AF786072
:1059100039601320FFF7C4FF244B00229A60132044
:10592000FFF7D8FF224A7B681360224B00221A70CF
:10593000214B00221A70214B00221A60204B0022BA
:105940001A80204B00221A601F4B00221A601F4A47
:105950003B6813601E4B00221A801E4B00221A80E7
:105960001D4B00221A601D4B00221A700F4B1B6842
:105970000E4A23F0200313600C4B1B680B4A43F0C4
:1059800010031360094B9B68084A23F001039360DE
:10599000064B9B68054A43F0020393601320FFF710
:1059A00067FF00BF0837BD4680BD00BF00600140F3
:1059B00074AE000070AE00004FAE000050AE0000AC
:1059C00054AE000058AE00005CAE000060AE0000B7
:1059D00064AE000066AE000068AE000071AE00006C
:1059E00080B586B000AFF8607A603B600B467B8183
:1059F0007B89002B00D100BE1320FFF751FF374BEE
:105A000000229A601320FFF765FF00F03DFB344B46
:105A100001221A70FB681A78324B1A70324AFB68FE
:105A20001360324A7B891380314A7B681360314AA4
:105A30003B681360304A3B6A1360304ABB8C13806A
:105A40002F4B00221A802F4B00221A602E4ABB6A6D
:105A50001360224B9B68214A43F002039360214B61
:105A60001B78DBB2184600F035FBFB685A1C7B89BB
:105A7000013B1946104600F04BFB78617B6901330E
:105A80007B617B897A699A4212D2184B1B889AB241
:105A90007B699BB2D31A9AB2144B1A80124B1A68C4
:105AA0007B691344104A1360184B01221A700DE0F1
:105AB0000E4B00221A800F4B1B68002B03D0134B98
:105AC00002221A7002E0114B03221A701320FFF712
:105AD000CFFE00BF1837BD4680BD00BF006001404B
